{
	"data": {
		"bytecode": {
			"linkReferences": {},
			"object": "6101606040525f60a0908152601460c0819052601e60e0819052603c6101005261012091909152610140526100389060079060066101a8565b506040805160c081018252600a8152600f60208201819052601e92820192909252600560608201526080810191909152601960a082015261007d90600d9060066101a8565b50600160135534801561008e575f5ffd5b50604051612d17380380612d178339810160408190526100ad916101ff565b336040518060400160405280600e81526020016d44657374696e795761724865726f60901b81525060405180604001604052806003815260200162088ae960eb1b815250815f90816100ff91906102c4565b50600161010c82826102c4565b5050506001600160a01b03811661013c57604051631e4fbdf760e01b81525f600482015260240160405180910390fd5b61014581610157565b506001600160a01b031660805261037e565b600680546001600160a01b038381166001600160a01b0319831681179093556040519116919082907f8be0079c531659141344cd1fd0a4f28419497f9722a3daafe3b4186f6b6457e0905f90a35050565b82600681019282156101db579160200282015b828111156101db578251829060ff169055916020019190600101906101bb565b506101e79291506101eb565b5090565b5b808211156101e7575f81556001016101ec565b5f6020828403121561020f575f5ffd5b81516001600160a01b0381168114610225575f5ffd5b9392505050565b634e487b7160e01b5f52604160045260245ffd5b600181811c9082168061025457607f821691505b60208210810361027257634e487b7160e01b5f52602260045260245ffd5b50919050565b601f8211156102bf57805f5260205f20601f840160051c8101602085101561029d5750805b601f840160051c820191505b818110156102bc575f81556001016102a9565b50505b505050565b81516001600160401b038111156102dd576102dd61022c565b6102f1816102eb8454610240565b84610278565b6020601f821160018114610323575f831561030c5750848201515b5f19600385901b1c1916600184901b1784556102bc565b5f84815260208120601f198516915b828110156103525787850151825560209485019460019092019101610332565b508482101561036f57868401515f19600387901b60f8161c191681555b50505050600190811b01905550565b60805161296c6103ab5f395f81816104f9015281816108f101528181611280015261133a015261296c5ff3fe608060405234801561000f575f5ffd5b506004361061028c575f3560e01c8063715018a611610161578063c002d23d116100ca578063e2eb41ff11610084578063e2eb41ff14610710578063e985e9c51461077f578063f0acd7d514610792578063f2fde38b1461079a578063f43a22dc146107ad578063fb896848146107b5575f5ffd5b8063c002d23d146106a7578063c5d46dfc146106b0578063c87b56dd146106c3578063c90e74ee146106d6578063cd671a58146106de578063dde1d996146106e8575f5ffd5b806395d89b411161011b57806395d89b4114610647578063a22cb4651461064f578063a2309ff814610662578063ae9f5d151461066a578063b80509961461068c578063b88d4fde14610694575f5ffd5b8063715018a6146105d457806377189774146105dc5780638462151c146105fb5780638bc608241461061b5780638da5cb5b14610623578063904cfae514610634575f5ffd5b806323b872dd1161020357806342842e0e116101bd57806342842e0e1461051b5780634e3dc2f11461052e5780635c12cd4b146105485780635d86e6c4146105a65780636352211e146105ae57806370a08231146105c1575f5ffd5b806323b872dd146104b657806324a753cb146104c95780632828ee7f146104dc578063289e144b146104e45780633ccfd60b146104ec5780633e413bee146104f4575f5ffd5b80630816f909116102545780630816f90914610360578063081812fc14610381578063095ea7b3146103ac5780631763c8f7146103bf578063183ff085146103e957806321d80111146103f1575f5ffd5b806301bd7ec61461029057806301ffc9a71461030057806304a91c3b1461032357806304cbac281461033857806306fdde031461034b575b5f5ffd5b6102ce61029e366004612397565b60146020525f908152604090205460ff808216916101008104821691620100008204811691630100000090041684565b6040805160ff958616815293851660208501529184169183019190915290911660608201526080015b60405180910390f35b61031361030e3660046123c3565b6107c8565b60405190151581526020016102f7565b6103366103313660046123f3565b610819565b005b61033661034636600461241b565b610abd565b610353610d8c565b6040516102f79190612473565b61037361036e36600461249b565b610e1b565b6040519081526020016102f7565b61039461038f366004612397565b610ee0565b6040516001600160a01b0390911681526020016102f7565b6103366103ba3660046124b4565b610f07565b6103736103cd3660046124ce565b601860209081525f928352604080842090915290825290205481565b610336610f16565b6104736103ff366004612397565b604080516080810182525f808252602082018190529181018290526060810191909152505f908152601460209081526040918290208251608081018452905460ff80821683526101008204811693830193909352620100008104831693820193909352630100000090920416606082015290565b6040516102f791905f60808201905060ff835116825260ff602084015116602083015260ff604084015116604083015260ff606084015116606083015292915050565b6103366104c43660046124ef565b611071565b6103366104d7366004612571565b6110fa565b610373601281565b610373601e81565b610336611261565b6103947f000000000000000000000000000000000000000000000000000000000000000081565b6103366105293660046124ef565b611476565b610536606481565b60405160ff90911681526020016102f7565b61055b61055636600461249b565b611490565b6040516102f791905f60c082019050825182526020830151602083015260408301516040830152606083015160608301526080830151608083015260a083015160a083015292915050565b610536600a81565b6103946105bc366004612397565b611524565b6103736105cf36600461249b565b61152e565b610336611573565b6103736105ea36600461249b565b60176020525f908152604090205481565b61060e61060936600461249b565b611586565b6040516102f791906125dd565b6103736115ef565b6006546001600160a01b0316610394565b6103366106423660046124b4565b611602565b610353611667565b61033661065d36600461262c565b611676565b610373611681565b610536610678366004612397565b5f9081526014602052604090205460ff1690565b610373600981565b6103366106a2366004612675565b611691565b61037361271081565b6103736106be36600461249b565b6116a9565b6103536106d1366004612397565b611761565b610373600781565b61037362093a8081565b6106fb6106f636600461249b565b6117d2565b604080519283526020830191909152016102f7565b61075261071e36600461249b565b60166020525f9081526040902080546001820154600283015460038401546004850154600590950154939492939192909186565b604080519687526020870195909552938501929092526060840152608083015260a082015260c0016102f7565b61031361078d366004612752565b611821565b61033661184e565b6103366107a836600461249b565b61193e565b610373601481565b6103136107c336600461249b565b61197b565b5f6001600160e01b031982166380ac58cd60e01b14806107f857506001600160e01b03198216635b5e139f60e01b145b8061081357506301ffc9a760e01b6001600160e01b03198316145b92915050565b60018260ff1610158015610831575060078260ff1611155b6108725760405162461bcd60e51b815260206004820152600d60248201526c496e76616c696420636c61737360981b60448201526064015b60405180910390fd5b60018110158015610884575060148111155b6108bf5760405162461bcd60e51b815260206004820152600c60248201526b426164207175616e7469747960a01b6044820152606401610869565b5f6108cc8261271061278e565b6040516323b872dd60e01b8152336004820152306024820152604481018290529091507f00000000000000000000000000000000000000000000000000000000000000006001600160a01b0316906323b872dd906064016020604051808303815f875af115801561093f573d5f5f3e3d5ffd5b505050506040513d601f19601f8201168201806040525081019061096391906127a5565b6109a65760405162461bcd60e51b81526020600482015260146024820152731554d110c81d1c985b9cd9995c8819985a5b195960621b6044820152606401610869565b5f5b82811015610aae57601380545f91826109c0836127c0565b9190505590506109d033826119ae565b6040805160808101825260ff878116808352600a6020808501828152858701838152606087019384525f8981526014845288812097518854935192519551881663010000000263ff0000001996891662010000029690961663ffff0000199389166101000261ffff1990951691909816179290921716949094179190911790935533808352601584528483208054600181018255908452928490209092018590559251928352839290917f13813009b3f5c7aa9c31c9a13ad2ff3d91a110e52f196f000984f531411d646b910160405180910390a3506001016109a8565b50610ab8336119c7565b505050565b33610ac783611524565b6001600160a01b031614610b095760405162461bcd60e51b81526020600482015260096024820152682737ba1037bbb732b960b91b6044820152606401610869565b60028160ff161115610b485760405162461bcd60e51b8152602060048201526008602482015267109859081cdd185d60c21b6044820152606401610869565b335f908152601660205260409020805460011115610b985760405162461bcd60e51b815260206004820152600d60248201526c4e656564203120656e6572677960981b6044820152606401610869565b5f83815260146020526040812082549091600191849190610bba9084906127d8565b925050819055506001826005015f828254610bd591906127eb565b909155505060ff8316158015610bf557508054606461010090910460ff16105b15610c3357805460019082908290610c16908290610100900460ff166127fe565b92506101000a81548160ff021916908360ff160217905550610cec565b8260ff166001148015610c515750805460646201000090910460ff16105b15610c745780546001908290600290610c1690849062010000900460ff166127fe565b8260ff166002148015610c93575080546064630100000090910460ff16105b15610cb75780546001908290600390610c169084906301000000900460ff166127fe565b60405162461bcd60e51b815260206004820152600a60248201526914dd185d081b585e195960b21b6044820152606401610869565b5f60ff841615610d22578360ff16600114610d125781546301000000900460ff16610d2d565b815462010000900460ff16610d2d565b8154610100900460ff165b83546040805160ff80891682528416602082015290810191909152909150859033907f58124902134392b4b7c7bdda5a8212057ce0d9f76d0359ffb45ab6c6cc44a66b9060600160405180910390a3610d85336119c7565b5050505050565b60605f8054610d9a90612817565b80601f0160208091040260200160405190810160405280929190818152602001828054610dc690612817565b8015610e115780601f10610de857610100808354040283529160200191610e11565b820191905f5260205f20905b815481529060010190602001808311610df457829003601f168201915b5050505050905090565b6001600160a01b0381165f908152601660209081526040808320815160c0810183528154815260018201549381018490526002820154928101839052600382015460608201526004820154608082015260059091015460a08201529115801590610ea057506001610e8f6201518042612863565b610e9991906127d8565b8260200151105b15610ea857505f5b6007811015610ec157610ebc8160016127eb565b610ec4565b60015b905080600714610ed5576009610ed8565b60125b949350505050565b5f610eea82611a48565b505f828152600460205260409020546001600160a01b0316610813565b610f12828233611a80565b5050565b335f90815260166020526040812090610f326201518042612863565b905080826001015410610f7c5760405162461bcd60e51b815260206004820152601260248201527120b63932b0b23c9031b432b1b5b2b21034b760711b6044820152606401610869565b5f8260010154118015610f9c5750610f956001826127d8565b8260010154105b15610fa8575f60028301555b600782600201541015610fca576002820154610fc59060016127eb565b610fcd565b60015b600283018190555f90600714610fe4576009610fe7565b60125b905080835f015f828254610ffb91906127eb565b909155505060018084018390556003840180545f9061101b9084906127eb565b909155505060028301548354604080519283526020830184905282015233907f7e4c1be4a7f9736334ae1a21a54b75fe0b8ac49d1c72b89a21ec4802d4f6fabb906060015b60405180910390a2610ab8336119c7565b6001600160a01b03821661109a57604051633250574960e11b81525f6004820152602401610869565b5f6110a6838333611a8d565b9050836001600160a01b0316816001600160a01b0316146110f4576040516364283d7b60e01b81526001600160a01b0380861660048301526024820184905282166044820152606401610869565b50505050565b611102611b7f565b8281146111435760405162461bcd60e51b815260206004820152600f60248201526e098cadccee8d040dad2e6dac2e8c6d608b1b6044820152606401610869565b5f5b83811015610d855782828281811061115f5761115f612876565b9050602002013560175f87878581811061117b5761117b612876565b9050602002016020810190611190919061249b565b6001600160a01b0316815260208101919091526040015f20558484828181106111bb576111bb612876565b90506020020160208101906111d0919061249b565b6001600160a01b03167fd6b3c8a20950a8c3bf4b2e0eea46cc0b673ab85afdf1df9b034bef963089cccb84848481811061120c5761120c612876565b9050602002013560405161122291815260200190565b60405180910390a261125985858381811061123f5761123f612876565b9050602002016020810190611254919061249b565b6119c7565b600101611145565b611269611b7f565b6040516370a0823160e01b81523060048201525f907f00000000000000000000000000000000000000000000000000000000000000006001600160a01b0316906370a0823190602401602060405180830381865afa1580156112cd573d5f5f3e3d5ffd5b505050506040513d601f19601f820116820180604052508101906112f1919061288a565b90505f81116113385760405162461bcd60e51b81526020600482015260136024820152724e6f7468696e6720746f20776974686472617760681b6044820152606401610869565b7f00000000000000000000000000000000000000000000000000000000000000006001600160a01b031663a9059cbb6113796006546001600160a01b031690565b6040516001600160e01b031960e084901b1681526001600160a01b039091166004820152602481018490526044016020604051808303815f875af11580156113c3573d5f5f3e3d5ffd5b505050506040513d601f19601f820116820180604052508101906113e791906127a5565b6114255760405162461bcd60e51b815260206004820152600f60248201526e15da5d1a191c985dc819985a5b1959608a1b6044820152606401610869565b6006546001600160a01b03166001600160a01b03167f7084f5476618d8e60b11ef0d7d3f06914655adb8793e28ff7f018d4c76d505d58260405161146b91815260200190565b60405180910390a250565b610ab883838360405180602001604052805f815250611691565b6114c36040518060c001604052805f81526020015f81526020015f81526020015f81526020015f81526020015f81525090565b506001600160a01b03165f90815260166020908152604091829020825160c08101845281548152600182015492810192909252600281015492820192909252600382015460608201526004820154608082015260059091015460a082015290565b5f61081382611a48565b5f6001600160a01b038216611558576040516322718ad960e21b81525f6004820152602401610869565b506001600160a01b03165f9081526003602052604090205490565b61157b611b7f565b6115845f611bac565b565b6001600160a01b0381165f908152601560209081526040918290208054835181840281018401909452808452606093928301828280156115e357602002820191905f5260205f20905b8154815260200190600101908083116115cf575b50505050509050919050565b5f6115fd62093a8042612863565b905090565b61160a611b7f565b6001600160a01b0382165f8181526017602052604090819020839055517fd6b3c8a20950a8c3bf4b2e0eea46cc0b673ab85afdf1df9b034bef963089cccb906116569084815260200190565b60405180910390a2610f12826119c7565b606060018054610d9a90612817565b610f12338383611bfd565b5f60016013546115fd91906127d8565b61169c848484611071565b6110f43385858585611cc4565b5f5f6116b483611deb565b6001600160a01b0384165f90815260166020526040812060020154919250906116de90600561278e565b6001600160a01b0385165f90815260166020526040812060058101546004820154600390920154939450919261171491906127eb565b61171e91906127eb565b6001600160a01b0386165f908152601760205260409020549091508161174484866127eb565b61174e91906127eb565b61175891906127eb565b95945050505050565b606061176c82611a48565b505f61178260408051602081019091525f815290565b90505f8151116117a05760405180602001604052805f8152506117cb565b806117aa84611efb565b6040516020016117bb9291906128b8565b6040516020818303038152906040525b9392505050565b5f806117e162093a8042612863565b5f8181526018602090815260408083206001600160a01b038816845290915281205491935090915081900361181c57611819836116a9565b90505b915091565b6001600160a01b039182165f90815260056020908152604080832093909416825291909152205460ff1690565b335f9081526016602052604090208054601e111561189f5760405162461bcd60e51b815260206004820152600e60248201526d4e65656420333020656e6572677960901b6044820152606401610869565b601e815f015f8282546118b291906127d8565b925050819055506001816004015f8282546118cd91906127eb565b909155505f9050806118dd611f8b565b9150915080835f015f8282546118f391906127eb565b909155505082546040805160ff85168152602081018490529081019190915233907f961f8a8f48777d857fd7d09520cdb5e2b2ad796d96d8e3f4d0d7deca4083b86a90606001611060565b611946611b7f565b6001600160a01b03811661196f57604051631e4fbdf760e01b81525f6004820152602401610869565b61197881611bac565b50565b5f6119896201518042612863565b6001600160a01b039092165f9081526016602052604090206001015491909110919050565b610f12828260405180602001604052805f81525061207f565b5f6119d562093a8042612863565b90505f6119e1836116a9565b5f8381526018602090815260408083206001600160a01b03881680855290835292819020849055805186815291820184905292935090917f10b505e7a75cd57e3caa450ca92393622360803e79b3cf51e73d2f47a87a434c910160405180910390a2505050565b5f818152600260205260408120546001600160a01b03168061081357604051637e27328960e01b815260048101849052602401610869565b610ab88383836001612096565b5f828152600260205260408120546001600160a01b0390811690831615611ab957611ab981848661219a565b6001600160a01b03811615611af357611ad45f855f5f612096565b6001600160a01b0381165f90815260036020526040902080545f190190555b6001600160a01b03851615611b21576001600160a01b0385165f908152600360205260409020805460010190555b5f8481526002602052604080822080546001600160a01b0319166001600160a01b0389811691821790925591518793918516917fddf252ad1be2c89b69c2b068fc378daa952ba7f163c4a11628f55a4df523b3ef91a4949350505050565b6006546001600160a01b031633146115845760405163118cdaa760e01b8152336004820152602401610869565b600680546001600160a01b038381166001600160a01b0319831681179093556040519116919082907f8be0079c531659141344cd1fd0a4f28419497f9722a3daafe3b4186f6b6457e0905f90a35050565b6001600160a01b038316611c265760405163a9fbf51f60e01b81525f6004820152602401610869565b6001600160a01b038216611c5857604051630b61174360e31b81526001600160a01b0383166004820152602401610869565b6001600160a01b038381165f81815260056020908152604080832094871680845294825291829020805460ff191686151590811790915591519182527f17307eab39ab6107e8899845ad3d59bd9653f200f220920489ca2b5937696c31910160405180910390a3505050565b6001600160a01b0383163b15610d8557604051630a85bd0160e11b81526001600160a01b0384169063150b7a0290611d069088908890879087906004016128cc565b6020604051808303815f875af1925050508015611d40575060408051601f3d908101601f19168201909252611d3d91810190612908565b60015b611da7573d808015611d6d576040519150601f19603f3d011682016040523d82523d5f602084013e611d72565b606091505b5080515f03611d9f57604051633250574960e11b81526001600160a01b0385166004820152602401610869565b805160208201fd5b6001600160e01b03198116630a85bd0160e11b14611de357604051633250574960e11b81526001600160a01b0385166004820152602401610869565b505050505050565b6001600160a01b0381165f90815260156020908152604080832080548251818502810185019093528083528493830182828015611e4557602002820191905f5260205f20905b815481526020019060010190808311611e31575b509394505f93505050505b8151811015611ef4575f60145f848481518110611e6f57611e6f612876565b60209081029190910181015182528181019290925260409081015f208151608081018352905460ff80821683526101008204811694830185905262010000820481169383018490526301000000909104166060820181905290935091611ed591906127eb565b611edf91906127eb565b611ee990856127eb565b935050600101611e50565b5050919050565b60605f611f07836121fe565b60010190505f8167ffffffffffffffff811115611f2657611f26612661565b6040519080825280601f01601f191660200182016040528015611f50576020820181803683370190505b5090508181016020015b5f19016f181899199a1a9b1b9c1cb0b131b232b360811b600a86061a8153600a8504945084611f5a57509392505050565b335f818152601660209081526040808320600401549051929384938493606493611fe4934493429391929101938452602084019290925260601b6bffffffffffffffffffffffff19166040830152605482015260740190565b604051602081830303815290604052805190602001205f1c6120069190612923565b90505f805b60068160ff16101561206f57600d8160ff166006811061202d5761202d612876565b015461203990836127eb565b9150818310156120675780945060078160ff166006811061205c5761205c612876565b015493505050509091565b60010161200b565b5050600954600294909350915050565b61208983836122d5565b610ab8335f858585611cc4565b80806120aa57506001600160a01b03821615155b1561216b575f6120b984611a48565b90506001600160a01b038316158015906120e55750826001600160a01b0316816001600160a01b031614155b80156120f857506120f68184611821565b155b156121215760405163a9fbf51f60e01b81526001600160a01b0384166004820152602401610869565b81156121695783856001600160a01b0316826001600160a01b03167f8c5be1e5ebec7d5bd14f71427d1e84f3dd0314c0f7b2291e5b200ac8c7c3b92560405160405180910390a45b505b50505f90815260046020526040902080546001600160a01b0319166001600160a01b0392909216919091179055565b6121a5838383612336565b610ab8576001600160a01b0383166121d357604051637e27328960e01b815260048101829052602401610869565b60405163177e802f60e01b81526001600160a01b038316600482015260248101829052604401610869565b5f8072184f03e93ff9f4daa797ed6e38ed64bf6a1f0160401b831061223c5772184f03e93ff9f4daa797ed6e38ed64bf6a1f0160401b830492506040015b6d04ee2d6d415b85acef81000000008310612268576d04ee2d6d415b85acef8100000000830492506020015b662386f26fc10000831061228657662386f26fc10000830492506010015b6305f5e100831061229e576305f5e100830492506008015b61271083106122b257612710830492506004015b606483106122c4576064830492506002015b600a83106108135760010192915050565b6001600160a01b0382166122fe57604051633250574960e11b81525f6004820152602401610869565b5f61230a83835f611a8d565b90506001600160a01b03811615610ab8576040516339e3563760e11b81525f6004820152602401610869565b5f6001600160a01b03831615801590610ed85750826001600160a01b0316846001600160a01b0316148061236f575061236f8484611821565b80610ed85750505f908152600460205260409020546001600160a01b03908116911614919050565b5f602082840312156123a7575f5ffd5b5035919050565b6001600160e01b031981168114611978575f5ffd5b5f602082840312156123d3575f5ffd5b81356117cb816123ae565b803560ff811681146123ee575f5ffd5b919050565b5f5f60408385031215612404575f5ffd5b61240d836123de565b946020939093013593505050565b5f5f6040838503121561242c575f5ffd5b8235915061243c602084016123de565b90509250929050565b5f81518084528060208401602086015e5f602082860101526020601f19601f83011685010191505092915050565b602081525f6117cb6020830184612445565b80356001600160a01b03811681146123ee575f5ffd5b5f602082840312156124ab575f5ffd5b6117cb82612485565b5f5f604083850312156124c5575f5ffd5b61240d83612485565b5f5f604083850312156124df575f5ffd5b8235915061243c60208401612485565b5f5f5f60608486031215612501575f5ffd5b61250a84612485565b925061251860208501612485565b929592945050506040919091013590565b5f5f83601f840112612539575f5ffd5b50813567ffffffffffffffff811115612550575f5ffd5b6020830191508360208260051b850101111561256a575f5ffd5b9250929050565b5f5f5f5f60408587031215612584575f5ffd5b843567ffffffffffffffff81111561259a575f5ffd5b6125a687828801612529565b909550935050602085013567ffffffffffffffff8111156125c5575f5ffd5b6125d187828801612529565b95989497509550505050565b602080825282518282018190525f918401906040840190835b818110156126145783518352602093840193909201916001016125f6565b509095945050505050565b8015158114611978575f5ffd5b5f5f6040838503121561263d575f5ffd5b61264683612485565b915060208301356126568161261f565b809150509250929050565b634e487b7160e01b5f52604160045260245ffd5b5f5f5f5f60808587031215612688575f5ffd5b61269185612485565b935061269f60208601612485565b925060408501359150606085013567ffffffffffffffff8111156126c1575f5ffd5b8501601f810187136126d1575f5ffd5b803567ffffffffffffffff8111156126eb576126eb612661565b604051601f8201601f19908116603f0116810167ffffffffffffffff8111828210171561271a5761271a612661565b604052818152828201602001891015612731575f5ffd5b816020840160208301375f6020838301015280935050505092959194509250565b5f5f60408385031215612763575f5ffd5b61276c83612485565b915061243c60208401612485565b634e487b7160e01b5f52601160045260245ffd5b80820281158282048414176108135761081361277a565b5f602082840312156127b5575f5ffd5b81516117cb8161261f565b5f600182016127d1576127d161277a565b5060010190565b818103818111156108135761081361277a565b808201808211156108135761081361277a565b60ff81811683821601908111156108135761081361277a565b600181811c9082168061282b57607f821691505b60208210810361284957634e487b7160e01b5f52602260045260245ffd5b50919050565b634e487b7160e01b5f52601260045260245ffd5b5f826128715761287161284f565b500490565b634e487b7160e01b5f52603260045260245ffd5b5f6020828403121561289a575f5ffd5b5051919050565b5f81518060208401855e5f93019283525090919050565b5f610ed86128c683866128a1565b846128a1565b6001600160a01b03858116825284166020820152604081018390526080606082018190525f906128fe90830184612445565b9695505050505050565b5f60208284031215612918575f5ffd5b81516117cb816123ae565b5f826129315761293161284f565b50069056fea26469706673582212209dc9ab3c4c39b6a5784987dcf56567652a9bbb3ec2627e4f3c23c8400e06cb1964736f6c634300081e0033",
			"opcodes": "PUSH2 0x160 PUSH1 0x40 MSTORE PUSH0 PUSH1 0xA0 SWAP1 DUP2 MSTORE PUSH1 0x14 PUSH1 0xC0 DUP2 SWAP1 MSTORE PUSH1 0x1E PUSH1 0xE0 DUP2 SWAP1 MSTORE PUSH1 0x3C PUSH2 0x100 MSTORE PUSH2 0x120 SWAP2 SWAP1 SWAP2 MSTORE PUSH2 0x140 MSTORE PUSH2 0x38 SWAP1 PUSH1 0x7 SWAP1 PUSH1 0x6 PUSH2 0x1A8 JUMP JUMPDEST POP PUSH1 0x40 DUP1 MLOAD PUSH1 0xC0 DUP2 ADD DUP3 MSTORE PUSH1 0xA DUP2 MSTORE PUSH1 0xF PUSH1 0x20 DUP3 ADD DUP2 SWAP1 MSTORE PUSH1 0x1E SWAP3 DUP3 ADD SWAP3 SWAP1 SWAP3 MSTORE PUSH1 0x5 PUSH1 0x60 DUP3 ADD MSTORE PUSH1 0x80 DUP2 ADD SWAP2 SWAP1 SWAP2 MSTORE PUSH1 0x19 PUSH1 0xA0 DUP3 ADD MSTORE PUSH2 0x7D SWAP1 PUSH1 0xD SWAP1 PUSH1 0x6 PUSH2 0x1A8 JUMP JUMPDEST POP PUSH1 0x1 PUSH1 0x13 SSTORE CALLVALUE DUP1 ISZERO PUSH2 0x8E JUMPI PUSH0 PUSH0 REVERT JUMPDEST POP PUSH1 0x40 MLOAD PUSH2 0x2D17 CODESIZE SUB DUP1 PUSH2 0x2D17 DUP4 CODECOPY DUP2 ADD PUSH1 0x40 DUP2 SWAP1 MSTORE PUSH2 0xAD SWAP2 PUSH2 0x1FF JUMP JUMPDEST CALLER PUSH1 0x40 MLOAD DUP1 PUSH1 0x40 ADD PUSH1 0x40 MSTORE DUP1 PUSH1 0xE DUP2 MSTORE PUSH1 0x20 ADD PUSH14 0x44657374696E795761724865726F PUSH1 0x90 SHL DUP2 MSTORE POP PUSH1 0x40 MLOAD DUP1 PUSH1 0x40 ADD PUSH1 0x40 MSTORE DUP1 PUSH1 0x3 DUP2 MSTORE PUSH1 0x20 ADD PUSH3 0x88AE9 PUSH1 0xEB SHL DUP2 MSTORE POP DUP2 PUSH0 SWAP1 DUP2 PUSH2 0xFF SWAP2 SWAP1 PUSH2 0x2C4 JUMP JUMPDEST POP PUSH1 0x1 PUSH2 0x10C DUP3 DUP3 PUSH2 0x2C4 JUMP JUMPDEST POP POP POP PUSH1 0x1 PUSH1 0x1 PUSH1 0xA0 SHL SUB DUP2 AND PUSH2 0x13C JUMPI PUSH1 0x40 MLOAD PUSH4 0x1E4FBDF7 PUSH1 0xE0 SHL DUP2 MSTORE PUSH0 PUSH1 0x4 DUP3 ADD MSTORE PUSH1 0x24 ADD PUSH1 0x40 MLOAD DUP1 SWAP2 SUB SWAP1 REVERT JUMPDEST PUSH2 0x145 DUP2 PUSH2 0x157 JUMP JUMPDEST POP PUSH1 0x1 PUSH1 0x1 PUSH1 0xA0 SHL SUB AND PUSH1 0x80 MSTORE PUSH2 0x37E JUMP JUMPDEST PUSH1 0x6 DUP1 SLOAD PUSH1 0x1 PUSH1 0x1 PUSH1 0xA0 SHL SUB DUP4 DUP2 AND PUSH1 0x1 PUSH1 0x1 PUSH1 0xA0 SHL SUB NOT DUP4 AND DUP2 OR SWAP1 SWAP4 SSTORE PUSH1 0x40 MLOAD SWAP2 AND SWAP2 SWAP1 DUP3 SWAP1 PUSH32 0x8BE0079C531659141344CD1FD0A4F28419497F9722A3DAAFE3B4186F6B6457E0 SWAP1 PUSH0 SWAP1 LOG3 POP POP JUMP JUMPDEST DUP3 PUSH1 0x6 DUP2 ADD SWAP3 DUP3 ISZERO PUSH2 0x1DB JUMPI SWAP2 PUSH1 0x20 MUL DUP3 ADD JUMPDEST DUP3 DUP2 GT ISZERO PUSH2 0x1DB JUMPI DUP3 MLOAD DUP3 SWAP1 PUSH1 0xFF AND SWAP1 SSTORE SWAP2 PUSH1 0x20 ADD SWAP2 SWAP1 PUSH1 0x1 ADD SWAP1 PUSH2 0x1BB JUMP JUMPDEST POP PUSH2 0x1E7 SWAP3 SWAP2 POP PUSH2 0x1EB JUMP JUMPDEST POP SWAP1 JUMP JUMPDEST JUMPDEST DUP1 DUP3 GT ISZERO PUSH2 0x1E7 JUMPI PUSH0 DUP2 SSTORE PUSH1 0x1 ADD PUSH2 0x1EC JUMP JUMPDEST PUSH0 PUSH1 0x20 DUP3 DUP5 SUB SLT ISZERO PUSH2 0x20F JUMPI PUSH0 PUSH0 REVERT JUMPDEST DUP2 MLOAD PUSH1 0x1 PUSH1 0x1 PUSH1 0xA0 SHL SUB DUP2 AND DUP2 EQ PUSH2 0x225 JUMPI PUSH0 PUSH0 REVERT JUMPDEST SWAP4 SWAP3 POP POP POP JUMP JUMPDEST PUSH4 0x4E487B71 PUSH1 0xE0 SHL PUSH0 MSTORE PUSH1 0x41 PUSH1 0x4 MSTORE PUSH1 0x24 PUSH0 REVERT JUMPDEST PUSH1 0x1 DUP2 DUP2 SHR SWAP1 DUP3 AND DUP1 PUSH2 0x254 JUMPI PUSH1 0x7F DUP3 AND SWAP2 POP JUMPDEST PUSH1 0x20 DUP3 LT DUP2 SUB PUSH2 0x272 JUMPI PUSH4 0x4E487B71 PUSH1 0xE0 SHL PUSH0 MSTORE PUSH1 0x22 PUSH1 0x4 MSTORE PUSH1 0x24 PUSH0 REVERT JUMPDEST POP SWAP2 SWAP1 POP JUMP JUMPDEST PUSH1 0x1F DUP3 GT ISZERO PUSH2 0x2BF JUMPI DUP1 PUSH0 MSTORE PUSH1 0x20 PUSH0 KECCAK256 PUSH1 0x1F DUP5 ADD PUSH1 0x5 SHR DUP2 ADD PUSH1 0x20 DUP6 LT ISZERO PUSH2 0x29D JUMPI POP DUP1 JUMPDEST PUSH1 0x1F DUP5 ADD PUSH1 0x5 SHR DUP3 ADD SWAP2 POP JUMPDEST DUP2 DUP2 LT ISZERO PUSH2 0x2BC JUMPI PUSH0 DUP2 SSTORE PUSH1 0x1 ADD PUSH2 0x2A9 JUMP JUMPDEST POP POP JUMPDEST POP POP POP JUMP JUMPDEST DUP2 MLOAD PUSH1 0x1 PUSH1 0x1 PUSH1 0x40 SHL SUB DUP2 GT ISZERO PUSH2 0x2DD JUMPI PUSH2 0x2DD PUSH2 0x22C JUMP JUMPDEST PUSH2 0x2F1 DUP2 PUSH2 0x2EB DUP5 SLOAD PUSH2 0x240 JUMP JUMPDEST DUP5 PUSH2 0x278 JUMP JUMPDEST PUSH1 0x20 PUSH1 0x1F DUP3 GT PUSH1 0x1 DUP2 EQ PUSH2 0x323 JUMPI PUSH0 DUP4 ISZERO PUSH2 0x30C JUMPI POP DUP5 DUP3 ADD MLOAD JUMPDEST PUSH0 NOT PUSH1 0x3 DUP6 SWAP1 SHL SHR NOT AND PUSH1 0x1 DUP5 SWAP1 SHL OR DUP5 SSTORE PUSH2 0x2BC JUMP JUMPDEST PUSH0 DUP5 DUP2 MSTORE PUSH1 0x20 DUP2 KECCAK256 PUSH1 0x1F NOT DUP6 AND SWAP2 JUMPDEST DUP3 DUP2 LT ISZERO PUSH2 0x352 JUMPI DUP8 DUP6 ADD MLOAD DUP3 SSTORE PUSH1 0x20 SWAP5 DUP6 ADD SWAP5 PUSH1 0x1 SWAP1 SWAP3 ADD SWAP2 ADD PUSH2 0x332 JUMP JUMPDEST POP DUP5 DUP3 LT ISZERO PUSH2 0x36F JUMPI DUP7 DUP5 ADD MLOAD PUSH0 NOT PUSH1 0x3 DUP8 SWAP1 SHL PUSH1 0xF8 AND SHR NOT AND DUP2 SSTORE JUMPDEST POP POP POP POP PUSH1 0x1 SWAP1 DUP2 SHL ADD SWAP1 SSTORE POP JUMP JUMPDEST PUSH1 0x80 MLOAD PUSH2 0x296C PUSH2 0x3AB PUSH0 CODECOPY PUSH0 DUP2 DUP2 PUSH2 0x4F9 ADD MSTORE DUP2 DUP2 PUSH2 0x8F1 ADD MSTORE DUP2 DUP2 PUSH2 0x1280 ADD MSTORE PUSH2 0x133A ADD MSTORE PUSH2 0x296C PUSH0 RETURN INVALID PUSH1 0x80 PUSH1 0x40 MSTORE CALLVALUE DUP1 ISZERO PUSH2 0xF JUMPI PUSH0 PUSH0 REVERT JUMPDEST POP PUSH1 0x4 CALLDATASIZE LT PUSH2 0x28C JUMPI PUSH0 CALLDATALOAD PUSH1 0xE0 SHR DUP1 PUSH4 0x715018A6 GT PUSH2 0x161 JUMPI DUP1 PUSH4 0xC002D23D GT PUSH2 0xCA JUMPI DUP1 PUSH4 0xE2EB41FF GT PUSH2 0x84 JUMPI DUP1 PUSH4 0xE2EB41FF EQ PUSH2 0x710 JUMPI DUP1 PUSH4 0xE985E9C5 EQ PUSH2 0x77F JUMPI DUP1 PUSH4 0xF0ACD7D5 EQ PUSH2 0x792 JUMPI DUP1 PUSH4 0xF2FDE38B EQ PUSH2 0x79A JUMPI DUP1 PUSH4 0xF43A22DC EQ PUSH2 0x7AD JUMPI DUP1 PUSH4 0xFB896848 EQ PUSH2 0x7B5 JUMPI PUSH0 PUSH0 REVERT JUMPDEST DUP1 PUSH4 0xC002D23D EQ PUSH2 0x6A7 JUMPI DUP1 PUSH4 0xC5D46DFC EQ PUSH2 0x6B0 JUMPI DUP1 PUSH4 0xC87B56DD EQ PUSH2 0x6C3 JUMPI DUP1 PUSH4 0xC90E74EE EQ PUSH2 0x6D6 JUMPI DUP1 PUSH4 0xCD671A58 EQ PUSH2 0x6DE JUMPI DUP1 PUSH4 0xDDE1D996 EQ PUSH2 0x6E8 JUMPI PUSH0 PUSH0 REVERT JUMPDEST DUP1 PUSH4 0x95D89B41 GT PUSH2 0x11B JUMPI DUP1 PUSH4 0x95D89B41 EQ PUSH2 0x647 JUMPI DUP1 PUSH4 0xA22CB465 EQ PUSH2 0x64F JUMPI DUP1 PUSH4 0xA2309FF8 EQ PUSH2 0x662 JUMPI DUP1 PUSH4 0xAE9F5D15 EQ PUSH2 0x66A JUMPI DUP1 PUSH4 0xB8050996 EQ PUSH2 0x68C JUMPI DUP1 PUSH4 0xB88D4FDE EQ PUSH2 0x694 JUMPI PUSH0 PUSH0 REVERT JUMPDEST DUP1 PUSH4 0x715018A6 EQ PUSH2 0x5D4 JUMPI DUP1 PUSH4 0x77189774 EQ PUSH2 0x5DC JUMPI DUP1 PUSH4 0x8462151C EQ PUSH2 0x5FB JUMPI DUP1 PUSH4 0x8BC60824 EQ PUSH2 0x61B JUMPI DUP1 PUSH4 0x8DA5CB5B EQ PUSH2 0x623 JUMPI DUP1 PUSH4 0x904CFAE5 EQ PUSH2 0x634 JUMPI PUSH0 PUSH0 REVERT JUMPDEST DUP1 PUSH4 0x23B872DD GT PUSH2 0x203 JUMPI DUP1 PUSH4 0x42842E0E GT PUSH2 0x1BD JUMPI DUP1 PUSH4 0x42842E0E EQ PUSH2 0x51B JUMPI DUP1 PUSH4 0x4E3DC2F1 EQ PUSH2 0x52E JUMPI DUP1 PUSH4 0x5C12CD4B EQ PUSH2 0x548 JUMPI DUP1 PUSH4 0x5D86E6C4 EQ PUSH2 0x5A6 JUMPI DUP1 PUSH4 0x6352211E EQ PUSH2 0x5AE JUMPI DUP1 PUSH4 0x70A08231 EQ PUSH2 0x5C1 JUMPI PUSH0 PUSH0 REVERT JUMPDEST DUP1 PUSH4 0x23B872DD EQ PUSH2 0x4B6 JUMPI DUP1 PUSH4 0x24A753CB EQ PUSH2 0x4C9 JUMPI DUP1 PUSH4 0x2828EE7F EQ PUSH2 0x4DC JUMPI DUP1 PUSH4 0x289E144B EQ PUSH2 0x4E4 JUMPI DUP1 PUSH4 0x3CCFD60B EQ PUSH2 0x4EC JUMPI DUP1 PUSH4 0x3E413BEE EQ PUSH2 0x4F4 JUMPI PUSH0 PUSH0 REVERT JUMPDEST DUP1 PUSH4 0x816F909 GT PUSH2 0x254 JUMPI DUP1 PUSH4 0x816F909 EQ PUSH2 0x360 JUMPI DUP1 PUSH4 0x81812FC EQ PUSH2 0x381 JUMPI DUP1 PUSH4 0x95EA7B3 EQ PUSH2 0x3AC JUMPI DUP1 PUSH4 0x1763C8F7 EQ PUSH2 0x3BF JUMPI DUP1 PUSH4 0x183FF085 EQ PUSH2 0x3E9 JUMPI DUP1 PUSH4 0x21D80111 EQ PUSH2 0x3F1 JUMPI PUSH0 PUSH0 REVERT JUMPDEST DUP1 PUSH4 0x1BD7EC6 EQ PUSH2 0x290 JUMPI DUP1 PUSH4 0x1FFC9A7 EQ PUSH2 0x300 JUMPI DUP1 PUSH4 0x4A91C3B EQ PUSH2 0x323 JUMPI DUP1 PUSH4 0x4CBAC28 EQ PUSH2 0x338 JUMPI DUP1 PUSH4 0x6FDDE03 EQ PUSH2 0x34B JUMPI JUMPDEST PUSH0 PUSH0 REVERT JUMPDEST PUSH2 0x2CE PUSH2 0x29E CALLDATASIZE PUSH1 0x4 PUSH2 0x2397 JUMP JUMPDEST PUSH1 0x14 PUSH1 0x20 MSTORE PUSH0 SWAP1 DUP2 MSTORE PUSH1 0x40 SWAP1 KECCAK256 SLOAD PUSH1 0xFF DUP1 DUP3 AND SWAP2 PUSH2 0x100 DUP2 DIV DUP3 AND SWAP2 PUSH3 0x10000 DUP3 DIV DUP2 AND SWAP2 PUSH4 0x1000000 SWAP1 DIV AND DUP5 JUMP JUMPDEST PUSH1 0x40 DUP1 MLOAD PUSH1 0xFF SWAP6 DUP7 AND DUP2 MSTORE SWAP4 DUP6 AND PUSH1 0x20 DUP6 ADD MSTORE SWAP2 DUP5 AND SWAP2 DUP4 ADD SWAP2 SWAP1 SWAP2 MSTORE SWAP1 SWAP2 AND PUSH1 0x60 DUP3 ADD MSTORE PUSH1 0x80 ADD JUMPDEST PUSH1 0x40 MLOAD DUP1 SWAP2 SUB SWAP1 RETURN JUMPDEST PUSH2 0x313 PUSH2 0x30E CALLDATASIZE PUSH1 0x4 PUSH2 0x23C3 JUMP JUMPDEST PUSH2 0x7C8 JUMP JUMPDEST PUSH1 0x40 MLOAD SWAP1 ISZERO ISZERO DUP2 MSTORE PUSH1 0x20 ADD PUSH2 0x2F7 JUMP JUMPDEST PUSH2 0x336 PUSH2 0x331 CALLDATASIZE PUSH1 0x4 PUSH2 0x23F3 JUMP JUMPDEST PUSH2 0x819 JUMP JUMPDEST STOP JUMPDEST PUSH2 0x336 PUSH2 0x346 CALLDATASIZE PUSH1 0x4 PUSH2 0x241B JUMP JUMPDEST PUSH2 0xABD JUMP JUMPDEST PUSH2 0x353 PUSH2 0xD8C JUMP JUMPDEST PUSH1 0x40 MLOAD PUSH2 0x2F7 SWAP2 SWAP1 PUSH2 0x2473 JUMP JUMPDEST PUSH2 0x373 PUSH2 0x36E CALLDATASIZE PUSH1 0x4 PUSH2 0x249B JUMP JUMPDEST PUSH2 0xE1B JUMP JUMPDEST PUSH1 0x40 MLOAD SWAP1 DUP2 MSTORE PUSH1 0x20 ADD PUSH2 0x2F7 JUMP JUMPDEST PUSH2 0x394 PUSH2 0x38F CALLDATASIZE PUSH1 0x4 PUSH2 0x2397 JUMP JUMPDEST PUSH2 0xEE0 JUMP JUMPDEST PUSH1 0x40 MLOAD PUSH1 0x1 PUSH1 0x1 PUSH1 0xA0 SHL SUB SWAP1 SWAP2 AND DUP2 MSTORE PUSH1 0x20 ADD PUSH2 0x2F7 JUMP JUMPDEST PUSH2 0x336 PUSH2 0x3BA CALLDATASIZE PUSH1 0x4 PUSH2 0x24B4 JUMP JUMPDEST PUSH2 0xF07 JUMP JUMPDEST PUSH2 0x373 PUSH2 0x3CD CALLDATASIZE PUSH1 0x4 PUSH2 0x24CE JUMP JUMPDEST PUSH1 0x18 PUSH1 0x20 SWAP1 DUP2 MSTORE PUSH0 SWAP3 DUP4 MSTORE PUSH1 0x40 DUP1 DUP5 KECCAK256 SWAP1 SWAP2 MSTORE SWAP1 DUP3 MSTORE SWAP1 KECCAK256 SLOAD DUP2 JUMP JUMPDEST PUSH2 0x336 PUSH2 0xF16 JUMP JUMPDEST PUSH2 0x473 PUSH2 0x3FF CALLDATASIZE PUSH1 0x4 PUSH2 0x2397 JUMP JUMPDEST PUSH1 0x40 DUP1 MLOAD PUSH1 0x80 DUP2 ADD DUP3 MSTORE PUSH0 DUP1 DUP3 MSTORE PUSH1 0x20 DUP3 ADD DUP2 SWAP1 MSTORE SWAP2 DUP2 ADD DUP3 SWAP1 MSTORE PUSH1 0x60 DUP2 ADD SWAP2 SWAP1 SWAP2 MSTORE POP PUSH0 SWAP1 DUP2 MSTORE PUSH1 0x14 PUSH1 0x20 SWAP1 DUP2 MSTORE PUSH1 0x40 SWAP2 DUP3 SWAP1 KECCAK256 DUP3 MLOAD PUSH1 0x80 DUP2 ADD DUP5 MSTORE SWAP1 SLOAD PUSH1 0xFF DUP1 DUP3 AND DUP4 MSTORE PUSH2 0x100 DUP3 DIV DUP2 AND SWAP4 DUP4 ADD SWAP4 SWAP1 SWAP4 MSTORE PUSH3 0x10000 DUP2 DIV DUP4 AND SWAP4 DUP3 ADD SWAP4 SWAP1 SWAP4 MSTORE PUSH4 0x1000000 SWAP1 SWAP3 DIV AND PUSH1 0x60 DUP3 ADD MSTORE SWAP1 JUMP JUMPDEST PUSH1 0x40 MLOAD PUSH2 0x2F7 SWAP2 SWAP1 PUSH0 PUSH1 0x80 DUP3 ADD SWAP1 POP PUSH1 0xFF DUP4 MLOAD AND DUP3 MSTORE PUSH1 0xFF PUSH1 0x20 DUP5 ADD MLOAD AND PUSH1 0x20 DUP4 ADD MSTORE PUSH1 0xFF PUSH1 0x40 DUP5 ADD MLOAD AND PUSH1 0x40 DUP4 ADD MSTORE PUSH1 0xFF PUSH1 0x60 DUP5 ADD MLOAD AND PUSH1 0x60 DUP4 ADD MSTORE SWAP3 SWAP2 POP POP JUMP JUMPDEST PUSH2 0x336 PUSH2 0x4C4 CALLDATASIZE PUSH1 0x4 PUSH2 0x24EF JUMP JUMPDEST PUSH2 0x1071 JUMP JUMPDEST PUSH2 0x336 PUSH2 0x4D7 CALLDATASIZE PUSH1 0x4 PUSH2 0x2571 JUMP JUMPDEST PUSH2 0x10FA JUMP JUMPDEST PUSH2 0x373 PUSH1 0x12 DUP2 JUMP JUMPDEST PUSH2 0x373 PUSH1 0x1E DUP2 JUMP JUMPDEST PUSH2 0x336 PUSH2 0x1261 JUMP JUMPDEST PUSH2 0x394 PUSH32 0x0 DUP2 JUMP JUMPDEST PUSH2 0x336 PUSH2 0x529 CALLDATASIZE PUSH1 0x4 PUSH2 0x24EF JUMP JUMPDEST PUSH2 0x1476 JUMP JUMPDEST PUSH2 0x536 PUSH1 0x64 DUP2 JUMP JUMPDEST PUSH1 0x40 MLOAD PUSH1 0xFF SWAP1 SWAP2 AND DUP2 MSTORE PUSH1 0x20 ADD PUSH2 0x2F7 JUMP JUMPDEST PUSH2 0x55B PUSH2 0x556 CALLDATASIZE PUSH1 0x4 PUSH2 0x249B JUMP JUMPDEST PUSH2 0x1490 JUMP JUMPDEST PUSH1 0x40 MLOAD PUSH2 0x2F7 SWAP2 SWAP1 PUSH0 PUSH1 0xC0 DUP3 ADD SWAP1 POP DUP3 MLOAD DUP3 MSTORE PUSH1 0x20 DUP4 ADD MLOAD PUSH1 0x20 DUP4 ADD MSTORE PUSH1 0x40 DUP4 ADD MLOAD PUSH1 0x40 DUP4 ADD MSTORE PUSH1 0x60 DUP4 ADD MLOAD PUSH1 0x60 DUP4 ADD MSTORE PUSH1 0x80 DUP4 ADD MLOAD PUSH1 0x80 DUP4 ADD MSTORE PUSH1 0xA0 DUP4 ADD MLOAD PUSH1 0xA0 DUP4 ADD MSTORE SWAP3 SWAP2 POP POP JUMP JUMPDEST PUSH2 0x536 PUSH1 0xA DUP2 JUMP JUMPDEST PUSH2 0x394 PUSH2 0x5BC CALLDATASIZE PUSH1 0x4 PUSH2 0x2397 JUMP JUMPDEST PUSH2 0x1524 JUMP JUMPDEST PUSH2 0x373 PUSH2 0x5CF CALLDATASIZE PUSH1 0x4 PUSH2 0x249B JUMP JUMPDEST PUSH2 0x152E JUMP JUMPDEST PUSH2 0x336 PUSH2 0x1573 JUMP JUMPDEST PUSH2 0x373 PUSH2 0x5EA CALLDATASIZE PUSH1 0x4 PUSH2 0x249B JUMP JUMPDEST PUSH1 0x17 PUSH1 0x20 MSTORE PUSH0 SWAP1 DUP2 MSTORE PUSH1 0x40 SWAP1 KECCAK256 SLOAD DUP2 JUMP JUMPDEST PUSH2 0x60E PUSH2 0x609 CALLDATASIZE PUSH1 0x4 PUSH2 0x249B JUMP JUMPDEST PUSH2 0x1586 JUMP JUMPDEST PUSH1 0x40 MLOAD PUSH2 0x2F7 SWAP2 SWAP1 PUSH2 0x25DD JUMP JUMPDEST PUSH2 0x373 PUSH2 0x15EF JUMP JUMPDEST PUSH1 0x6 SLOAD PUSH1 0x1 PUSH1 0x1 PUSH1 0xA0 SHL SUB AND PUSH2 0x394 JUMP JUMPDEST PUSH2 0x336 PUSH2 0x642 CALLDATASIZE PUSH1 0x4 PUSH2 0x24B4 JUMP JUMPDEST PUSH2 0x1602 JUMP JUMPDEST PUSH2 0x353 PUSH2 0x1667 JUMP JUMPDEST PUSH2 0x336 PUSH2 0x65D CALLDATASIZE PUSH1 0x4 PUSH2 0x262C JUMP JUMPDEST PUSH2 0x1676 JUMP JUMPDEST PUSH2 0x373 PUSH2 0x1681 JUMP JUMPDEST PUSH2 0x536 PUSH2 0x678 CALLDATASIZE PUSH1 0x4 PUSH2 0x2397 JUMP JUMPDEST PUSH0 SWAP1 DUP2 MSTORE PUSH1 0x14 PUSH1 0x20 MSTORE PUSH1 0x40 SWAP1 KECCAK256 SLOAD PUSH1 0xFF AND SWAP1 JUMP JUMPDEST PUSH2 0x373 PUSH1 0x9 DUP2 JUMP JUMPDEST PUSH2 0x336 PUSH2 0x6A2 CALLDATASIZE PUSH1 0x4 PUSH2 0x2675 JUMP JUMPDEST PUSH2 0x1691 JUMP JUMPDEST PUSH2 0x373 PUSH2 0x2710 DUP2 JUMP JUMPDEST PUSH2 0x373 PUSH2 0x6BE CALLDATASIZE PUSH1 0x4 PUSH2 0x249B JUMP JUMPDEST PUSH2 0x16A9 JUMP JUMPDEST PUSH2 0x353 PUSH2 0x6D1 CALLDATASIZE PUSH1 0x4 PUSH2 0x2397 JUMP JUMPDEST PUSH2 0x1761 JUMP JUMPDEST PUSH2 0x373 PUSH1 0x7 DUP2 JUMP JUMPDEST PUSH2 0x373 PUSH3 0x93A80 DUP2 JUMP JUMPDEST PUSH2 0x6FB PUSH2 0x6F6 CALLDATASIZE PUSH1 0x4 PUSH2 0x249B JUMP JUMPDEST PUSH2 0x17D2 JUMP JUMPDEST PUSH1 0x40 DUP1 MLOAD SWAP3 DUP4 MSTORE PUSH1 0x20 DUP4 ADD SWAP2 SWAP1 SWAP2 MSTORE ADD PUSH2 0x2F7 JUMP JUMPDEST PUSH2 0x752 PUSH2 0x71E CALLDATASIZE PUSH1 0x4 PUSH2 0x249B JUMP JUMPDEST PUSH1 0x16 PUSH1 0x20 MSTORE PUSH0 SWAP1 DUP2 MSTORE PUSH1 0x40 SWAP1 KECCAK256 DUP1 SLOAD PUSH1 0x1 DUP3 ADD SLOAD PUSH1 0x2 DUP4 ADD SLOAD PUSH1 0x3 DUP5 ADD SLOAD PUSH1 0x4 DUP6 ADD SLOAD PUSH1 0x5 SWAP1 SWAP6 ADD SLOAD SWAP4 SWAP5 SWAP3 SWAP4 SWAP2 SWAP3 SWAP1 SWAP2 DUP7 JUMP JUMPDEST PUSH1 0x40 DUP1 MLOAD SWAP7 DUP8 MSTORE PUSH1 0x20 DUP8 ADD SWAP6 SWAP1 SWAP6 MSTORE SWAP4 DUP6 ADD SWAP3 SWAP1 SWAP3 MSTORE PUSH1 0x60 DUP5 ADD MSTORE PUSH1 0x80 DUP4 ADD MSTORE PUSH1 0xA0 DUP3 ADD MSTORE PUSH1 0xC0 ADD PUSH2 0x2F7 JUMP JUMPDEST PUSH2 0x313 PUSH2 0x78D CALLDATASIZE PUSH1 0x4 PUSH2 0x2752 JUMP JUMPDEST PUSH2 0x1821 JUMP JUMPDEST PUSH2 0x336 PUSH2 0x184E JUMP JUMPDEST PUSH2 0x336 PUSH2 0x7A8 CALLDATASIZE PUSH1 0x4 PUSH2 0x249B JUMP JUMPDEST PUSH2 0x193E JUMP JUMPDEST PUSH2 0x373 PUSH1 0x14 DUP2 JUMP JUMPDEST PUSH2 0x313 PUSH2 0x7C3 CALLDATASIZE PUSH1 0x4 PUSH2 0x249B JUMP JUMPDEST PUSH2 0x197B JUMP JUMPDEST PUSH0 PUSH1 0x1 PUSH1 0x1 PUSH1 0xE0 SHL SUB NOT DUP3 AND PUSH4 0x80AC58CD PUSH1 0xE0 SHL EQ DUP1 PUSH2 0x7F8 JUMPI POP PUSH1 0x1 PUSH1 0x1 PUSH1 0xE0 SHL SUB NOT DUP3 AND PUSH4 0x5B5E139F PUSH1 0xE0 SHL EQ JUMPDEST DUP1 PUSH2 0x813 JUMPI POP PUSH4 0x1FFC9A7 PUSH1 0xE0 SHL PUSH1 0x1 PUSH1 0x1 PUSH1 0xE0 SHL SUB NOT DUP4 AND EQ JUMPDEST SWAP3 SWAP2 POP POP JUMP JUMPDEST PUSH1 0x1 DUP3 PUSH1 0xFF AND LT ISZERO DUP1 ISZERO PUSH2 0x831 JUMPI POP PUSH1 0x7 DUP3 PUSH1 0xFF AND GT ISZERO JUMPDEST PUSH2 0x872 JUMPI PUSH1 0x40 MLOAD PUSH3 0x461BCD PUSH1 0xE5 SHL DUP2 MSTORE PUSH1 0x20 PUSH1 0x4 DUP3 ADD MSTORE PUSH1 0xD PUSH1 0x24 DUP3 ADD MSTORE PUSH13 0x496E76616C696420636C617373 PUSH1 0x98 SHL PUSH1 0x44 DUP3 ADD MSTORE PUSH1 0x64 ADD JUMPDEST PUSH1 0x40 MLOAD DUP1 SWAP2 SUB SWAP1 REVERT JUMPDEST PUSH1 0x1 DUP2 LT ISZERO DUP1 ISZERO PUSH2 0x884 JUMPI POP PUSH1 0x14 DUP2 GT ISZERO JUMPDEST PUSH2 0x8BF JUMPI PUSH1 0x40 MLOAD PUSH3 0x461BCD PUSH1 0xE5 SHL DUP2 MSTORE PUSH1 0x20 PUSH1 0x4 DUP3 ADD MSTORE PUSH1 0xC PUSH1 0x24 DUP3 ADD MSTORE PUSH12 0x426164207175616E74697479 PUSH1 0xA0 SHL PUSH1 0x44 DUP3 ADD MSTORE PUSH1 0x64 ADD PUSH2 0x869 JUMP JUMPDEST PUSH0 PUSH2 0x8CC DUP3 PUSH2 0x2710 PUSH2 0x278E JUMP JUMPDEST PUSH1 0x40 MLOAD PUSH4 0x23B872DD PUSH1 0xE0 SHL DUP2 MSTORE CALLER PUSH1 0x4 DUP3 ADD MSTORE ADDRESS PUSH1 0x24 DUP3 ADD MSTORE PUSH1 0x44 DUP2 ADD DUP3 SWAP1 MSTORE SWAP1 SWAP2 POP PUSH32 0x0 PUSH1 0x1 PUSH1 0x1 PUSH1 0xA0 SHL SUB AND SWAP1 PUSH4 0x23B872DD SWAP1 PUSH1 0x64 ADD PUSH1 0x20 PUSH1 0x40 MLOAD DUP1 DUP4 SUB DUP2 PUSH0 DUP8 GAS CALL ISZERO DUP1 ISZERO PUSH2 0x93F JUMPI RETURNDATASIZE PUSH0 PUSH0 RETURNDATACOPY RETURNDATASIZE PUSH0 REVERT JUMPDEST POP POP POP POP PUSH1 0x40 MLOAD RETURNDATASIZE PUSH1 0x1F NOT PUSH1 0x1F DUP3 ADD AND DUP3 ADD DUP1 PUSH1 0x40 MSTORE POP DUP2 ADD SWAP1 PUSH2 0x963 SWAP2 SWAP1 PUSH2 0x27A5 JUMP JUMPDEST PUSH2 0x9A6 JUMPI PUSH1 0x40 MLOAD PUSH3 0x461BCD PUSH1 0xE5 SHL DUP2 MSTORE PUSH1 0x20 PUSH1 0x4 DUP3 ADD MSTORE PUSH1 0x14 PUSH1 0x24 DUP3 ADD MSTORE PUSH20 0x1554D110C81D1C985B9CD9995C8819985A5B1959 PUSH1 0x62 SHL PUSH1 0x44 DUP3 ADD MSTORE PUSH1 0x64 ADD PUSH2 0x869 JUMP JUMPDEST PUSH0 JUMPDEST DUP3 DUP2 LT ISZERO PUSH2 0xAAE JUMPI PUSH1 0x13 DUP1 SLOAD PUSH0 SWAP2 DUP3 PUSH2 0x9C0 DUP4 PUSH2 0x27C0 JUMP JUMPDEST SWAP2 SWAP1 POP SSTORE SWAP1 POP PUSH2 0x9D0 CALLER DUP3 PUSH2 0x19AE JUMP JUMPDEST PUSH1 0x40 DUP1 MLOAD PUSH1 0x80 DUP2 ADD DUP3 MSTORE PUSH1 0xFF DUP8 DUP2 AND DUP1 DUP4 MSTORE PUSH1 0xA PUSH1 0x20 DUP1 DUP6 ADD DUP3 DUP2 MSTORE DUP6 DUP8 ADD DUP4 DUP2 MSTORE PUSH1 0x60 DUP8 ADD SWAP4 DUP5 MSTORE PUSH0 DUP10 DUP2 MSTORE PUSH1 0x14 DUP5 MSTORE DUP9 DUP2 KECCAK256 SWAP8 MLOAD DUP9 SLOAD SWAP4 MLOAD SWAP3 MLOAD SWAP6 MLOAD DUP9 AND PUSH4 0x1000000 MUL PUSH4 0xFF000000 NOT SWAP7 DUP10 AND PUSH3 0x10000 MUL SWAP7 SWAP1 SWAP7 AND PUSH4 0xFFFF0000 NOT SWAP4 DUP10 AND PUSH2 0x100 MUL PUSH2 0xFFFF NOT SWAP1 SWAP6 AND SWAP2 SWAP1 SWAP9 AND OR SWAP3 SWAP1 SWAP3 OR AND SWAP5 SWAP1 SWAP5 OR SWAP2 SWAP1 SWAP2 OR SWAP1 SWAP4 SSTORE CALLER DUP1 DUP4 MSTORE PUSH1 0x15 DUP5 MSTORE DUP5 DUP4 KECCAK256 DUP1 SLOAD PUSH1 0x1 DUP2 ADD DUP3 SSTORE SWAP1 DUP5 MSTORE SWAP3 DUP5 SWAP1 KECCAK256 SWAP1 SWAP3 ADD DUP6 SWAP1 SSTORE SWAP3 MLOAD SWAP3 DUP4 MSTORE DUP4 SWAP3 SWAP1 SWAP2 PUSH32 0x13813009B3F5C7AA9C31C9A13AD2FF3D91A110E52F196F000984F531411D646B SWAP2 ADD PUSH1 0x40 MLOAD DUP1 SWAP2 SUB SWAP1 LOG3 POP PUSH1 0x1 ADD PUSH2 0x9A8 JUMP JUMPDEST POP PUSH2 0xAB8 CALLER PUSH2 0x19C7 JUMP JUMPDEST POP POP POP JUMP JUMPDEST CALLER PUSH2 0xAC7 DUP4 PUSH2 0x1524 JUMP JUMPDEST PUSH1 0x1 PUSH1 0x1 PUSH1 0xA0 SHL SUB AND EQ PUSH2 0xB09 JUMPI PUSH1 0x40 MLOAD PUSH3 0x461BCD PUSH1 0xE5 SHL DUP2 MSTORE PUSH1 0x20 PUSH1 0x4 DUP3 ADD MSTORE PUSH1 0x9 PUSH1 0x24 DUP3 ADD MSTORE PUSH9 0x2737BA1037BBB732B9 PUSH1 0xB9 SHL PUSH1 0x44 DUP3 ADD MSTORE PUSH1 0x64 ADD PUSH2 0x869 JUMP JUMPDEST PUSH1 0x2 DUP2 PUSH1 0xFF AND GT ISZERO PUSH2 0xB48 JUMPI PUSH1 0x40 MLOAD PUSH3 0x461BCD PUSH1 0xE5 SHL DUP2 MSTORE PUSH1 0x20 PUSH1 0x4 DUP3 ADD MSTORE PUSH1 0x8 PUSH1 0x24 DUP3 ADD MSTORE PUSH8 0x109859081CDD185D PUSH1 0xC2 SHL PUSH1 0x44 DUP3 ADD MSTORE PUSH1 0x64 ADD PUSH2 0x869 JUMP JUMPDEST CALLER PUSH0 SWAP1 DUP2 MSTORE PUSH1 0x16 PUSH1 0x20 MSTORE PUSH1 0x40 SWAP1 KECCAK256 DUP1 SLOAD PUSH1 0x1 GT ISZERO PUSH2 0xB98 JUMPI PUSH1 0x40 MLOAD PUSH3 0x461BCD PUSH1 0xE5 SHL DUP2 MSTORE PUSH1 0x20 PUSH1 0x4 DUP3 ADD MSTORE PUSH1 0xD PUSH1 0x24 DUP3 ADD MSTORE PUSH13 0x4E656564203120656E65726779 PUSH1 0x98 SHL PUSH1 0x44 DUP3 ADD MSTORE PUSH1 0x64 ADD PUSH2 0x869 JUMP JUMPDEST PUSH0 DUP4 DUP2 MSTORE PUSH1 0x14 PUSH1 0x20 MSTORE PUSH1 0x40 DUP2 KECCAK256 DUP3 SLOAD SWAP1 SWAP2 PUSH1 0x1 SWAP2 DUP5 SWAP2 SWAP1 PUSH2 0xBBA SWAP1 DUP5 SWAP1 PUSH2 0x27D8 JUMP JUMPDEST SWAP3 POP POP DUP2 SWAP1 SSTORE POP PUSH1 0x1 DUP3 PUSH1 0x5 ADD PUSH0 DUP3 DUP3 SLOAD PUSH2 0xBD5 SWAP2 SWAP1 PUSH2 0x27EB JUMP JUMPDEST SWAP1 SWAP2 SSTORE POP POP PUSH1 0xFF DUP4 AND ISZERO DUP1 ISZERO PUSH2 0xBF5 JUMPI POP DUP1 SLOAD PUSH1 0x64 PUSH2 0x100 SWAP1 SWAP2 DIV PUSH1 0xFF AND LT JUMPDEST ISZERO PUSH2 0xC33 JUMPI DUP1 SLOAD PUSH1 0x1 SWAP1 DUP3 SWAP1 DUP3 SWAP1 PUSH2 0xC16 SWAP1 DUP3 SWAP1 PUSH2 0x100 SWAP1 DIV PUSH1 0xFF AND PUSH2 0x27FE JUMP JUMPDEST SWAP3 POP PUSH2 0x100 EXP DUP2 SLOAD DUP2 PUSH1 0xFF MUL NOT AND SWAP1 DUP4 PUSH1 0xFF AND MUL OR SWAP1 SSTORE POP PUSH2 0xCEC JUMP JUMPDEST DUP3 PUSH1 0xFF AND PUSH1 0x1 EQ DUP1 ISZERO PUSH2 0xC51 JUMPI POP DUP1 SLOAD PUSH1 0x64 PUSH3 0x10000 SWAP1 SWAP2 DIV PUSH1 0xFF AND LT JUMPDEST ISZERO PUSH2 0xC74 JUMPI DUP1 SLOAD PUSH1 0x1 SWAP1 DUP3 SWAP1 PUSH1 0x2 SWAP1 PUSH2 0xC16 SWAP1 DUP5 SWAP1 PUSH3 0x10000 SWAP1 DIV PUSH1 0xFF AND PUSH2 0x27FE JUMP JUMPDEST DUP3 PUSH1 0xFF AND PUSH1 0x2 EQ DUP1 ISZERO PUSH2 0xC93 JUMPI POP DUP1 SLOAD PUSH1 0x64 PUSH4 0x1000000 SWAP1 SWAP2 DIV PUSH1 0xFF AND LT JUMPDEST ISZERO PUSH2 0xCB7 JUMPI DUP1 SLOAD PUSH1 0x1 SWAP1 DUP3 SWAP1 PUSH1 0x3 SWAP1 PUSH2 0xC16 SWAP1 DUP5 SWAP1 PUSH4 0x1000000 SWAP1 DIV PUSH1 0xFF AND PUSH2 0x27FE JUMP JUMPDEST PUSH1 0x40 MLOAD PUSH3 0x461BCD PUSH1 0xE5 SHL DUP2 MSTORE PUSH1 0x20 PUSH1 0x4 DUP3 ADD MSTORE PUSH1 0xA PUSH1 0x24 DUP3 ADD MSTORE PUSH10 0x14DD185D081B585E1959 PUSH1 0xB2 SHL PUSH1 0x44 DUP3 ADD MSTORE PUSH1 0x64 ADD PUSH2 0x869 JUMP JUMPDEST PUSH0 PUSH1 0xFF DUP5 AND ISZERO PUSH2 0xD22 JUMPI DUP4 PUSH1 0xFF AND PUSH1 0x1 EQ PUSH2 0xD12 JUMPI DUP2 SLOAD PUSH4 0x1000000 SWAP1 DIV PUSH1 0xFF AND PUSH2 0xD2D JUMP JUMPDEST DUP2 SLOAD PUSH3 0x10000 SWAP1 DIV PUSH1 0xFF AND PUSH2 0xD2D JUMP JUMPDEST DUP2 SLOAD PUSH2 0x100 SWAP1 DIV PUSH1 0xFF AND JUMPDEST DUP4 SLOAD PUSH1 0x40 DUP1 MLOAD PUSH1 0xFF DUP1 DUP10 AND DUP3 MSTORE DUP5 AND PUSH1 0x20 DUP3 ADD MSTORE SWAP1 DUP2 ADD SWAP2 SWAP1 SWAP2 MSTORE SWAP1 SWAP2 POP DUP6 SWAP1 CALLER SWAP1 PUSH32 0x58124902134392B4B7C7BDDA5A8212057CE0D9F76D0359FFB45AB6C6CC44A66B SWAP1 PUSH1 0x60 ADD PUSH1 0x40 MLOAD DUP1 SWAP2 SUB SWAP1 LOG3 PUSH2 0xD85 CALLER PUSH2 0x19C7 JUMP JUMPDEST POP POP POP POP POP JUMP JUMPDEST PUSH1 0x60 PUSH0 DUP1 SLOAD PUSH2 0xD9A SWAP1 PUSH2 0x2817 JUMP JUMPDEST DUP1 PUSH1 0x1F ADD PUSH1 0x20 DUP1 SWAP2 DIV MUL PUSH1 0x20 ADD PUSH1 0x40 MLOAD SWAP1 DUP2 ADD PUSH1 0x40 MSTORE DUP1 SWAP3 SWAP2 SWAP1 DUP2 DUP2 MSTORE PUSH1 0x20 ADD DUP3 DUP1 SLOAD PUSH2 0xDC6 SWAP1 PUSH2 0x2817 JUMP JUMPDEST DUP1 ISZERO PUSH2 0xE11 JUMPI DUP1 PUSH1 0x1F LT PUSH2 0xDE8 JUMPI PUSH2 0x100 DUP1 DUP4 SLOAD DIV MUL DUP4 MSTORE SWAP2 PUSH1 0x20 ADD SWAP2 PUSH2 0xE11 JUMP JUMPDEST DUP3 ADD SWAP2 SWAP1 PUSH0 MSTORE PUSH1 0x20 PUSH0 KECCAK256 SWAP1 JUMPDEST DUP2 SLOAD DUP2 MSTORE SWAP1 PUSH1 0x1 ADD SWAP1 PUSH1 0x20 ADD DUP1 DUP4 GT PUSH2 0xDF4 JUMPI DUP3 SWAP1 SUB PUSH1 0x1F AND DUP3 ADD SWAP2 JUMPDEST POP POP POP POP POP SWAP1 POP SWAP1 JUMP JUMPDEST PUSH1 0x1 PUSH1 0x1 PUSH1 0xA0 SHL SUB DUP2 AND PUSH0 SWAP1 DUP2 MSTORE PUSH1 0x16 PUSH1 0x20 SWAP1 DUP2 MSTORE PUSH1 0x40 DUP1 DUP4 KECCAK256 DUP2 MLOAD PUSH1 0xC0 DUP2 ADD DUP4 MSTORE DUP2 SLOAD DUP2 MSTORE PUSH1 0x1 DUP3 ADD SLOAD SWAP4 DUP2 ADD DUP5 SWAP1 MSTORE PUSH1 0x2 DUP3 ADD SLOAD SWAP3 DUP2 ADD DUP4 SWAP1 MSTORE PUSH1 0x3 DUP3 ADD SLOAD PUSH1 0x60 DUP3 ADD MSTORE PUSH1 0x4 DUP3 ADD SLOAD PUSH1 0x80 DUP3 ADD MSTORE PUSH1 0x5 SWAP1 SWAP2 ADD SLOAD PUSH1 0xA0 DUP3 ADD MSTORE SWAP2 ISZERO DUP1 ISZERO SWAP1 PUSH2 0xEA0 JUMPI POP PUSH1 0x1 PUSH2 0xE8F PUSH3 0x15180 TIMESTAMP PUSH2 0x2863 JUMP JUMPDEST PUSH2 0xE99 SWAP2 SWAP1 PUSH2 0x27D8 JUMP JUMPDEST DUP3 PUSH1 0x20 ADD MLOAD LT JUMPDEST ISZERO PUSH2 0xEA8 JUMPI POP PUSH0 JUMPDEST PUSH1 0x7 DUP2 LT ISZERO PUSH2 0xEC1 JUMPI PUSH2 0xEBC DUP2 PUSH1 0x1 PUSH2 0x27EB JUMP JUMPDEST PUSH2 0xEC4 JUMP JUMPDEST PUSH1 0x1 JUMPDEST SWAP1 POP DUP1 PUSH1 0x7 EQ PUSH2 0xED5 JUMPI PUSH1 0x9 PUSH2 0xED8 JUMP JUMPDEST PUSH1 0x12 JUMPDEST SWAP5 SWAP4 POP POP POP POP JUMP JUMPDEST PUSH0 PUSH2 0xEEA DUP3 PUSH2 0x1A48 JUMP JUMPDEST POP PUSH0 DUP3 DUP2 MSTORE PUSH1 0x4 PUSH1 0x20 MSTORE PUSH1 0x40 SWAP1 KECCAK256 SLOAD PUSH1 0x1 PUSH1 0x1 PUSH1 0xA0 SHL SUB AND PUSH2 0x813 JUMP JUMPDEST PUSH2 0xF12 DUP3 DUP3 CALLER PUSH2 0x1A80 JUMP JUMPDEST POP POP JUMP JUMPDEST CALLER PUSH0 SWAP1 DUP2 MSTORE PUSH1 0x16 PUSH1 0x20 MSTORE PUSH1 0x40 DUP2 KECCAK256 SWAP1 PUSH2 0xF32 PUSH3 0x15180 TIMESTAMP PUSH2 0x2863 JUMP JUMPDEST SWAP1 POP DUP1 DUP3 PUSH1 0x1 ADD SLOAD LT PUSH2 0xF7C JUMPI PUSH1 0x40 MLOAD PUSH3 0x461BCD PUSH1 0xE5 SHL DUP2 MSTORE PUSH1 0x20 PUSH1 0x4 DUP3 ADD MSTORE PUSH1 0x12 PUSH1 0x24 DUP3 ADD MSTORE PUSH18 0x20B63932B0B23C9031B432B1B5B2B21034B7 PUSH1 0x71 SHL PUSH1 0x44 DUP3 ADD MSTORE PUSH1 0x64 ADD PUSH2 0x869 JUMP JUMPDEST PUSH0 DUP3 PUSH1 0x1 ADD SLOAD GT DUP1 ISZERO PUSH2 0xF9C JUMPI POP PUSH2 0xF95 PUSH1 0x1 DUP3 PUSH2 0x27D8 JUMP JUMPDEST DUP3 PUSH1 0x1 ADD SLOAD LT JUMPDEST ISZERO PUSH2 0xFA8 JUMPI PUSH0 PUSH1 0x2 DUP4 ADD SSTORE JUMPDEST PUSH1 0x7 DUP3 PUSH1 0x2 ADD SLOAD LT ISZERO PUSH2 0xFCA JUMPI PUSH1 0x2 DUP3 ADD SLOAD PUSH2 0xFC5 SWAP1 PUSH1 0x1 PUSH2 0x27EB JUMP JUMPDEST PUSH2 0xFCD JUMP JUMPDEST PUSH1 0x1 JUMPDEST PUSH1 0x2 DUP4 ADD DUP2 SWAP1 SSTORE PUSH0 SWAP1 PUSH1 0x7 EQ PUSH2 0xFE4 JUMPI PUSH1 0x9 PUSH2 0xFE7 JUMP JUMPDEST PUSH1 0x12 JUMPDEST SWAP1 POP DUP1 DUP4 PUSH0 ADD PUSH0 DUP3 DUP3 SLOAD PUSH2 0xFFB SWAP2 SWAP1 PUSH2 0x27EB JUMP JUMPDEST SWAP1 SWAP2 SSTORE POP POP PUSH1 0x1 DUP1 DUP5 ADD DUP4 SWAP1 SSTORE PUSH1 0x3 DUP5 ADD DUP1 SLOAD PUSH0 SWAP1 PUSH2 0x101B SWAP1 DUP5 SWAP1 PUSH2 0x27EB JUMP JUMPDEST SWAP1 SWAP2 SSTORE POP POP PUSH1 0x2 DUP4 ADD SLOAD DUP4 SLOAD PUSH1 0x40 DUP1 MLOAD SWAP3 DUP4 MSTORE PUSH1 0x20 DUP4 ADD DUP5 SWAP1 MSTORE DUP3 ADD MSTORE CALLER SWAP1 PUSH32 0x7E4C1BE4A7F9736334AE1A21A54B75FE0B8AC49D1C72B89A21EC4802D4F6FABB SWAP1 PUSH1 0x60 ADD JUMPDEST PUSH1 0x40 MLOAD DUP1 SWAP2 SUB SWAP1 LOG2 PUSH2 0xAB8 CALLER PUSH2 0x19C7 JUMP JUMPDEST PUSH1 0x1 PUSH1 0x1 PUSH1 0xA0 SHL SUB DUP3 AND PUSH2 0x109A JUMPI PUSH1 0x40 MLOAD PUSH4 0x32505749 PUSH1 0xE1 SHL DUP2 MSTORE PUSH0 PUSH1 0x4 DUP3 ADD MSTORE PUSH1 0x24 ADD PUSH2 0x869 JUMP JUMPDEST PUSH0 PUSH2 0x10A6 DUP4 DUP4 CALLER PUSH2 0x1A8D JUMP JUMPDEST SWAP1 POP DUP4 PUSH1 0x1 PUSH1 0x1 PUSH1 0xA0 SHL SUB AND DUP2 PUSH1 0x1 PUSH1 0x1 PUSH1 0xA0 SHL SUB AND EQ PUSH2 0x10F4 JUMPI PUSH1 0x40 MLOAD PUSH4 0x64283D7B PUSH1 0xE0 SHL DUP2 MSTORE PUSH1 0x1 PUSH1 0x1 PUSH1 0xA0 SHL SUB DUP1 DUP7 AND PUSH1 0x4 DUP4 ADD MSTORE PUSH1 0x24 DUP3 ADD DUP5 SWAP1 MSTORE DUP3 AND PUSH1 0x44 DUP3 ADD MSTORE PUSH1 0x64 ADD PUSH2 0x869 JUMP JUMPDEST POP POP POP POP JUMP JUMPDEST PUSH2 0x1102 PUSH2 0x1B7F JUMP JUMPDEST DUP3 DUP2 EQ PUSH2 0x1143 JUMPI PUSH1 0x40 MLOAD PUSH3 0x461BCD PUSH1 0xE5 SHL DUP2 MSTORE PUSH1 0x20 PUSH1 0x4 DUP3 ADD MSTORE PUSH1 0xF PUSH1 0x24 DUP3 ADD MSTORE PUSH15 0x98CADCCEE8D040DAD2E6DAC2E8C6D PUSH1 0x8B SHL PUSH1 0x44 DUP3 ADD MSTORE PUSH1 0x64 ADD PUSH2 0x869 JUMP JUMPDEST PUSH0 JUMPDEST DUP4 DUP2 LT ISZERO PUSH2 0xD85 JUMPI DUP3 DUP3 DUP3 DUP2 DUP2 LT PUSH2 0x115F JUMPI PUSH2 0x115F PUSH2 0x2876 JUMP JUMPDEST SWAP1 POP PUSH1 0x20 MUL ADD CALLDATALOAD PUSH1 0x17 PUSH0 DUP8 DUP8 DUP6 DUP2 DUP2 LT PUSH2 0x117B JUMPI PUSH2 0x117B PUSH2 0x2876 JUMP JUMPDEST SWAP1 POP PUSH1 0x20 MUL ADD PUSH1 0x20 DUP2 ADD SWAP1 PUSH2 0x1190 SWAP2 SWAP1 PUSH2 0x249B JUMP JUMPDEST PUSH1 0x1 PUSH1 0x1 PUSH1 0xA0 SHL SUB AND DUP2 MSTORE PUSH1 0x20 DUP2 ADD SWAP2 SWAP1 SWAP2 MSTORE PUSH1 0x40 ADD PUSH0 KECCAK256 SSTORE DUP5 DUP5 DUP3 DUP2 DUP2 LT PUSH2 0x11BB JUMPI PUSH2 0x11BB PUSH2 0x2876 JUMP JUMPDEST SWAP1 POP PUSH1 0x20 MUL ADD PUSH1 0x20 DUP2 ADD SWAP1 PUSH2 0x11D0 SWAP2 SWAP1 PUSH2 0x249B JUMP JUMPDEST PUSH1 0x1 PUSH1 0x1 PUSH1 0xA0 SHL SUB AND PUSH32 0xD6B3C8A20950A8C3BF4B2E0EEA46CC0B673AB85AFDF1DF9B034BEF963089CCCB DUP5 DUP5 DUP5 DUP2 DUP2 LT PUSH2 0x120C JUMPI PUSH2 0x120C PUSH2 0x2876 JUMP JUMPDEST SWAP1 POP PUSH1 0x20 MUL ADD CALLDATALOAD PUSH1 0x40 MLOAD PUSH2 0x1222 SWAP2 DUP2 MSTORE PUSH1 0x20 ADD SWAP1 JUMP JUMPDEST PUSH1 0x40 MLOAD DUP1 SWAP2 SUB SWAP1 LOG2 PUSH2 0x1259 DUP6 DUP6 DUP4 DUP2 DUP2 LT PUSH2 0x123F JUMPI PUSH2 0x123F PUSH2 0x2876 JUMP JUMPDEST SWAP1 POP PUSH1 0x20 MUL ADD PUSH1 0x20 DUP2 ADD SWAP1 PUSH2 0x1254 SWAP2 SWAP1 PUSH2 0x249B JUMP JUMPDEST PUSH2 0x19C7 JUMP JUMPDEST PUSH1 0x1 ADD PUSH2 0x1145 JUMP JUMPDEST PUSH2 0x1269 PUSH2 0x1B7F JUMP JUMPDEST PUSH1 0x40 MLOAD PUSH4 0x70A08231 PUSH1 0xE0 SHL DUP2 MSTORE ADDRESS PUSH1 0x4 DUP3 ADD MSTORE PUSH0 SWAP1 PUSH32 0x0 PUSH1 0x1 PUSH1 0x1 PUSH1 0xA0 SHL SUB AND SWAP1 PUSH4 0x70A08231 SWAP1 PUSH1 0x24 ADD PUSH1 0x20 PUSH1 0x40 MLOAD DUP1 DUP4 SUB DUP2 DUP7 GAS STATICCALL ISZERO DUP1 ISZERO PUSH2 0x12CD JUMPI RETURNDATASIZE PUSH0 PUSH0 RETURNDATACOPY RETURNDATASIZE PUSH0 REVERT JUMPDEST POP POP POP POP PUSH1 0x40 MLOAD RETURNDATASIZE PUSH1 0x1F NOT PUSH1 0x1F DUP3 ADD AND DUP3 ADD DUP1 PUSH1 0x40 MSTORE POP DUP2 ADD SWAP1 PUSH2 0x12F1 SWAP2 SWAP1 PUSH2 0x288A JUMP JUMPDEST SWAP1 POP PUSH0 DUP2 GT PUSH2 0x1338 JUMPI PUSH1 0x40 MLOAD PUSH3 0x461BCD PUSH1 0xE5 SHL DUP2 MSTORE PUSH1 0x20 PUSH1 0x4 DUP3 ADD MSTORE PUSH1 0x13 PUSH1 0x24 DUP3 ADD MSTORE PUSH19 0x4E6F7468696E6720746F207769746864726177 PUSH1 0x68 SHL PUSH1 0x44 DUP3 ADD MSTORE PUSH1 0x64 ADD PUSH2 0x869 JUMP JUMPDEST PUSH32 0x0 PUSH1 0x1 PUSH1 0x1 PUSH1 0xA0 SHL SUB AND PUSH4 0xA9059CBB PUSH2 0x1379 PUSH1 0x6 SLOAD PUSH1 0x1 PUSH1 0x1 PUSH1 0xA0 SHL SUB AND SWAP1 JUMP JUMPDEST PUSH1 0x40 MLOAD PUSH1 0x1 PUSH1 0x1 PUSH1 0xE0 SHL SUB NOT PUSH1 0xE0 DUP5 SWAP1 SHL AND DUP2 MSTORE PUSH1 0x1 PUSH1 0x1 PUSH1 0xA0 SHL SUB SWAP1 SWAP2 AND PUSH1 0x4 DUP3 ADD MSTORE PUSH1 0x24 DUP2 ADD DUP5 SWAP1 MSTORE PUSH1 0x44 ADD PUSH1 0x20 PUSH1 0x40 MLOAD DUP1 DUP4 SUB DUP2 PUSH0 DUP8 GAS CALL ISZERO DUP1 ISZERO PUSH2 0x13C3 JUMPI RETURNDATASIZE PUSH0 PUSH0 RETURNDATACOPY RETURNDATASIZE PUSH0 REVERT JUMPDEST POP POP POP POP PUSH1 0x40 MLOAD RETURNDATASIZE PUSH1 0x1F NOT PUSH1 0x1F DUP3 ADD AND DUP3 ADD DUP1 PUSH1 0x40 MSTORE POP DUP2 ADD SWAP1 PUSH2 0x13E7 SWAP2 SWAP1 PUSH2 0x27A5 JUMP JUMPDEST PUSH2 0x1425 JUMPI PUSH1 0x40 MLOAD PUSH3 0x461BCD PUSH1 0xE5 SHL DUP2 MSTORE PUSH1 0x20 PUSH1 0x4 DUP3 ADD MSTORE PUSH1 0xF PUSH1 0x24 DUP3 ADD MSTORE PUSH15 0x15DA5D1A191C985DC819985A5B1959 PUSH1 0x8A SHL PUSH1 0x44 DUP3 ADD MSTORE PUSH1 0x64 ADD PUSH2 0x869 JUMP JUMPDEST PUSH1 0x6 SLOAD PUSH1 0x1 PUSH1 0x1 PUSH1 0xA0 SHL SUB AND PUSH1 0x1 PUSH1 0x1 PUSH1 0xA0 SHL SUB AND PUSH32 0x7084F5476618D8E60B11EF0D7D3F06914655ADB8793E28FF7F018D4C76D505D5 DUP3 PUSH1 0x40 MLOAD PUSH2 0x146B SWAP2 DUP2 MSTORE PUSH1 0x20 ADD SWAP1 JUMP JUMPDEST PUSH1 0x40 MLOAD DUP1 SWAP2 SUB SWAP1 LOG2 POP JUMP JUMPDEST PUSH2 0xAB8 DUP4 DUP4 DUP4 PUSH1 0x40 MLOAD DUP1 PUSH1 0x20 ADD PUSH1 0x40 MSTORE DUP1 PUSH0 DUP2 MSTORE POP PUSH2 0x1691 JUMP JUMPDEST PUSH2 0x14C3 PUSH1 0x40 MLOAD DUP1 PUSH1 0xC0 ADD PUSH1 0x40 MSTORE DUP1 PUSH0 DUP2 MSTORE PUSH1 0x20 ADD PUSH0 DUP2 MSTORE PUSH1 0x20 ADD PUSH0 DUP2 MSTORE PUSH1 0x20 ADD PUSH0 DUP2 MSTORE PUSH1 0x20 ADD PUSH0 DUP2 MSTORE PUSH1 0x20 ADD PUSH0 DUP2 MSTORE POP SWAP1 JUMP JUMPDEST POP PUSH1 0x1 PUSH1 0x1 PUSH1 0xA0 SHL SUB AND PUSH0 SWAP1 DUP2 MSTORE PUSH1 0x16 PUSH1 0x20 SWAP1 DUP2 MSTORE PUSH1 0x40 SWAP2 DUP3 SWAP1 KECCAK256 DUP3 MLOAD PUSH1 0xC0 DUP2 ADD DUP5 MSTORE DUP2 SLOAD DUP2 MSTORE PUSH1 0x1 DUP3 ADD SLOAD SWAP3 DUP2 ADD SWAP3 SWAP1 SWAP3 MSTORE PUSH1 0x2 DUP2 ADD SLOAD SWAP3 DUP3 ADD SWAP3 SWAP1 SWAP3 MSTORE PUSH1 0x3 DUP3 ADD SLOAD PUSH1 0x60 DUP3 ADD MSTORE PUSH1 0x4 DUP3 ADD SLOAD PUSH1 0x80 DUP3 ADD MSTORE PUSH1 0x5 SWAP1 SWAP2 ADD SLOAD PUSH1 0xA0 DUP3 ADD MSTORE SWAP1 JUMP JUMPDEST PUSH0 PUSH2 0x813 DUP3 PUSH2 0x1A48 JUMP JUMPDEST PUSH0 PUSH1 0x1 PUSH1 0x1 PUSH1 0xA0 SHL SUB DUP3 AND PUSH2 0x1558 JUMPI PUSH1 0x40 MLOAD PUSH4 0x22718AD9 PUSH1 0xE2 SHL DUP2 MSTORE PUSH0 PUSH1 0x4 DUP3 ADD MSTORE PUSH1 0x24 ADD PUSH2 0x869 JUMP JUMPDEST POP PUSH1 0x1 PUSH1 0x1 PUSH1 0xA0 SHL SUB AND PUSH0 SWAP1 DUP2 MSTORE PUSH1 0x3 PUSH1 0x20 MSTORE PUSH1 0x40 SWAP1 KECCAK256 SLOAD SWAP1 JUMP JUMPDEST PUSH2 0x157B PUSH2 0x1B7F JUMP JUMPDEST PUSH2 0x1584 PUSH0 PUSH2 0x1BAC JUMP JUMPDEST JUMP JUMPDEST PUSH1 0x1 PUSH1 0x1 PUSH1 0xA0 SHL SUB DUP2 AND PUSH0 SWAP1 DUP2 MSTORE PUSH1 0x15 PUSH1 0x20 SWAP1 DUP2 MSTORE PUSH1 0x40 SWAP2 DUP3 SWAP1 KECCAK256 DUP1 SLOAD DUP4 MLOAD DUP2 DUP5 MUL DUP2 ADD DUP5 ADD SWAP1 SWAP5 MSTORE DUP1 DUP5 MSTORE PUSH1 0x60 SWAP4 SWAP3 DUP4 ADD DUP3 DUP3 DUP1 ISZERO PUSH2 0x15E3 JUMPI PUSH1 0x20 MUL DUP3 ADD SWAP2 SWAP1 PUSH0 MSTORE PUSH1 0x20 PUSH0 KECCAK256 SWAP1 JUMPDEST DUP2 SLOAD DUP2 MSTORE PUSH1 0x20 ADD SWAP1 PUSH1 0x1 ADD SWAP1 DUP1 DUP4 GT PUSH2 0x15CF JUMPI JUMPDEST POP POP POP POP POP SWAP1 POP SWAP2 SWAP1 POP JUMP JUMPDEST PUSH0 PUSH2 0x15FD PUSH3 0x93A80 TIMESTAMP PUSH2 0x2863 JUMP JUMPDEST SWAP1 POP SWAP1 JUMP JUMPDEST PUSH2 0x160A PUSH2 0x1B7F JUMP JUMPDEST PUSH1 0x1 PUSH1 0x1 PUSH1 0xA0 SHL SUB DUP3 AND PUSH0 DUP2 DUP2 MSTORE PUSH1 0x17 PUSH1 0x20 MSTORE PUSH1 0x40 SWAP1 DUP2 SWAP1 KECCAK256 DUP4 SWAP1 SSTORE MLOAD PUSH32 0xD6B3C8A20950A8C3BF4B2E0EEA46CC0B673AB85AFDF1DF9B034BEF963089CCCB SWAP1 PUSH2 0x1656 SWAP1 DUP5 DUP2 MSTORE PUSH1 0x20 ADD SWAP1 JUMP JUMPDEST PUSH1 0x40 MLOAD DUP1 SWAP2 SUB SWAP1 LOG2 PUSH2 0xF12 DUP3 PUSH2 0x19C7 JUMP JUMPDEST PUSH1 0x60 PUSH1 0x1 DUP1 SLOAD PUSH2 0xD9A SWAP1 PUSH2 0x2817 JUMP JUMPDEST PUSH2 0xF12 CALLER DUP4 DUP4 PUSH2 0x1BFD JUMP JUMPDEST PUSH0 PUSH1 0x1 PUSH1 0x13 SLOAD PUSH2 0x15FD SWAP2 SWAP1 PUSH2 0x27D8 JUMP JUMPDEST PUSH2 0x169C DUP5 DUP5 DUP5 PUSH2 0x1071 JUMP JUMPDEST PUSH2 0x10F4 CALLER DUP6 DUP6 DUP6 DUP6 PUSH2 0x1CC4 JUMP JUMPDEST PUSH0 PUSH0 PUSH2 0x16B4 DUP4 PUSH2 0x1DEB JUMP JUMPDEST PUSH1 0x1 PUSH1 0x1 PUSH1 0xA0 SHL SUB DUP5 AND PUSH0 SWAP1 DUP2 MSTORE PUSH1 0x16 PUSH1 0x20 MSTORE PUSH1 0x40 DUP2 KECCAK256 PUSH1 0x2 ADD SLOAD SWAP2 SWAP3 POP SWAP1 PUSH2 0x16DE SWAP1 PUSH1 0x5 PUSH2 0x278E JUMP JUMPDEST PUSH1 0x1 PUSH1 0x1 PUSH1 0xA0 SHL SUB DUP6 AND PUSH0 SWAP1 DUP2 MSTORE PUSH1 0x16 PUSH1 0x20 MSTORE PUSH1 0x40 DUP2 KECCAK256 PUSH1 0x5 DUP2 ADD SLOAD PUSH1 0x4 DUP3 ADD SLOAD PUSH1 0x3 SWAP1 SWAP3 ADD SLOAD SWAP4 SWAP5 POP SWAP2 SWAP3 PUSH2 0x1714 SWAP2 SWAP1 PUSH2 0x27EB JUMP JUMPDEST PUSH2 0x171E SWAP2 SWAP1 PUSH2 0x27EB JUMP JUMPDEST PUSH1 0x1 PUSH1 0x1 PUSH1 0xA0 SHL SUB DUP7 AND PUSH0 SWAP1 DUP2 MSTORE PUSH1 0x17 PUSH1 0x20 MSTORE PUSH1 0x40 SWAP1 KECCAK256 SLOAD SWAP1 SWAP2 POP DUP2 PUSH2 0x1744 DUP5 DUP7 PUSH2 0x27EB JUMP JUMPDEST PUSH2 0x174E SWAP2 SWAP1 PUSH2 0x27EB JUMP JUMPDEST PUSH2 0x1758 SWAP2 SWAP1 PUSH2 0x27EB JUMP JUMPDEST SWAP6 SWAP5 POP POP POP POP POP JUMP JUMPDEST PUSH1 0x60 PUSH2 0x176C DUP3 PUSH2 0x1A48 JUMP JUMPDEST POP PUSH0 PUSH2 0x1782 PUSH1 0x40 DUP1 MLOAD PUSH1 0x20 DUP2 ADD SWAP1 SWAP2 MSTORE PUSH0 DUP2 MSTORE SWAP1 JUMP JUMPDEST SWAP1 POP PUSH0 DUP2 MLOAD GT PUSH2 0x17A0 JUMPI PUSH1 0x40 MLOAD DUP1 PUSH1 0x20 ADD PUSH1 0x40 MSTORE DUP1 PUSH0 DUP2 MSTORE POP PUSH2 0x17CB JUMP JUMPDEST DUP1 PUSH2 0x17AA DUP5 PUSH2 0x1EFB JUMP JUMPDEST PUSH1 0x40 MLOAD PUSH1 0x20 ADD PUSH2 0x17BB SWAP3 SWAP2 SWAP1 PUSH2 0x28B8 JUMP JUMPDEST PUSH1 0x40 MLOAD PUSH1 0x20 DUP2 DUP4 SUB SUB DUP2 MSTORE SWAP1 PUSH1 0x40 MSTORE JUMPDEST SWAP4 SWAP3 POP POP POP JUMP JUMPDEST PUSH0 DUP1 PUSH2 0x17E1 PUSH3 0x93A80 TIMESTAMP PUSH2 0x2863 JUMP JUMPDEST PUSH0 DUP2 DUP2 MSTORE PUSH1 0x18 PUSH1 0x20 SWAP1 DUP2 MSTORE PUSH1 0x40 DUP1 DUP4 KECCAK256 PUSH1 0x1 PUSH1 0x1 PUSH1 0xA0 SHL SUB DUP9 AND DUP5 MSTORE SWAP1 SWAP2 MSTORE DUP2 KECCAK256 SLOAD SWAP2 SWAP4 POP SWAP1 SWAP2 POP DUP2 SWAP1 SUB PUSH2 0x181C JUMPI PUSH2 0x1819 DUP4 PUSH2 0x16A9 JUMP JUMPDEST SWAP1 POP JUMPDEST SWAP2 POP SWAP2 JUMP JUMPDEST PUSH1 0x1 PUSH1 0x1 PUSH1 0xA0 SHL SUB SWAP2 DUP3 AND PUSH0 SWAP1 DUP2 MSTORE PUSH1 0x5 PUSH1 0x20 SWAP1 DUP2 MSTORE PUSH1 0x40 DUP1 DUP4 KECCAK256 SWAP4 SWAP1 SWAP5 AND DUP3 MSTORE SWAP2 SWAP1 SWAP2 MSTORE KECCAK256 SLOAD PUSH1 0xFF AND SWAP1 JUMP JUMPDEST CALLER PUSH0 SWAP1 DUP2 MSTORE PUSH1 0x16 PUSH1 0x20 MSTORE PUSH1 0x40 SWAP1 KECCAK256 DUP1 SLOAD PUSH1 0x1E GT ISZERO PUSH2 0x189F JUMPI PUSH1 0x40 MLOAD PUSH3 0x461BCD PUSH1 0xE5 SHL DUP2 MSTORE PUSH1 0x20 PUSH1 0x4 DUP3 ADD MSTORE PUSH1 0xE PUSH1 0x24 DUP3 ADD MSTORE PUSH14 0x4E65656420333020656E65726779 PUSH1 0x90 SHL PUSH1 0x44 DUP3 ADD MSTORE PUSH1 0x64 ADD PUSH2 0x869 JUMP JUMPDEST PUSH1 0x1E DUP2 PUSH0 ADD PUSH0 DUP3 DUP3 SLOAD PUSH2 0x18B2 SWAP2 SWAP1 PUSH2 0x27D8 JUMP JUMPDEST SWAP3 POP POP DUP2 SWAP1 SSTORE POP PUSH1 0x1 DUP2 PUSH1 0x4 ADD PUSH0 DUP3 DUP3 SLOAD PUSH2 0x18CD SWAP2 SWAP1 PUSH2 0x27EB JUMP JUMPDEST SWAP1 SWAP2 SSTORE POP PUSH0 SWAP1 POP DUP1 PUSH2 0x18DD PUSH2 0x1F8B JUMP JUMPDEST SWAP2 POP SWAP2 POP DUP1 DUP4 PUSH0 ADD PUSH0 DUP3 DUP3 SLOAD PUSH2 0x18F3 SWAP2 SWAP1 PUSH2 0x27EB JUMP JUMPDEST SWAP1 SWAP2 SSTORE POP POP DUP3 SLOAD PUSH1 0x40 DUP1 MLOAD PUSH1 0xFF DUP6 AND DUP2 MSTORE PUSH1 0x20 DUP2 ADD DUP5 SWAP1 MSTORE SWAP1 DUP2 ADD SWAP2 SWAP1 SWAP2 MSTORE CALLER SWAP1 PUSH32 0x961F8A8F48777D857FD7D09520CDB5E2B2AD796D96D8E3F4D0D7DECA4083B86A SWAP1 PUSH1 0x60 ADD PUSH2 0x1060 JUMP JUMPDEST PUSH2 0x1946 PUSH2 0x1B7F JUMP JUMPDEST PUSH1 0x1 PUSH1 0x1 PUSH1 0xA0 SHL SUB DUP2 AND PUSH2 0x196F JUMPI PUSH1 0x40 MLOAD PUSH4 0x1E4FBDF7 PUSH1 0xE0 SHL DUP2 MSTORE PUSH0 PUSH1 0x4 DUP3 ADD MSTORE PUSH1 0x24 ADD PUSH2 0x869 JUMP JUMPDEST PUSH2 0x1978 DUP2 PUSH2 0x1BAC JUMP JUMPDEST POP JUMP JUMPDEST PUSH0 PUSH2 0x1989 PUSH3 0x15180 TIMESTAMP PUSH2 0x2863 JUMP JUMPDEST PUSH1 0x1 PUSH1 0x1 PUSH1 0xA0 SHL SUB SWAP1 SWAP3 AND PUSH0 SWAP1 DUP2 MSTORE PUSH1 0x16 PUSH1 0x20 MSTORE PUSH1 0x40 SWAP1 KECCAK256 PUSH1 0x1 ADD SLOAD SWAP2 SWAP1 SWAP2 LT SWAP2 SWAP1 POP JUMP JUMPDEST PUSH2 0xF12 DUP3 DUP3 PUSH1 0x40 MLOAD DUP1 PUSH1 0x20 ADD PUSH1 0x40 MSTORE DUP1 PUSH0 DUP2 MSTORE POP PUSH2 0x207F JUMP JUMPDEST PUSH0 PUSH2 0x19D5 PUSH3 0x93A80 TIMESTAMP PUSH2 0x2863 JUMP JUMPDEST SWAP1 POP PUSH0 PUSH2 0x19E1 DUP4 PUSH2 0x16A9 JUMP JUMPDEST PUSH0 DUP4 DUP2 MSTORE PUSH1 0x18 PUSH1 0x20 SWAP1 DUP2 MSTORE PUSH1 0x40 DUP1 DUP4 KECCAK256 PUSH1 0x1 PUSH1 0x1 PUSH1 0xA0 SHL SUB DUP9 AND DUP1 DUP6 MSTORE SWAP1 DUP4 MSTORE SWAP3 DUP2 SWAP1 KECCAK256 DUP5 SWAP1 SSTORE DUP1 MLOAD DUP7 DUP2 MSTORE SWAP2 DUP3 ADD DUP5 SWAP1 MSTORE SWAP3 SWAP4 POP SWAP1 SWAP2 PUSH32 0x10B505E7A75CD57E3CAA450CA92393622360803E79B3CF51E73D2F47A87A434C SWAP2 ADD PUSH1 0x40 MLOAD DUP1 SWAP2 SUB SWAP1 LOG2 POP POP POP JUMP JUMPDEST PUSH0 DUP2 DUP2 MSTORE PUSH1 0x2 PUSH1 0x20 MSTORE PUSH1 0x40 DUP2 KECCAK256 SLOAD PUSH1 0x1 PUSH1 0x1 PUSH1 0xA0 SHL SUB AND DUP1 PUSH2 0x813 JUMPI PUSH1 0x40 MLOAD PUSH4 0x7E273289 PUSH1 0xE0 SHL DUP2 MSTORE PUSH1 0x4 DUP2 ADD DUP5 SWAP1 MSTORE PUSH1 0x24 ADD PUSH2 0x869 JUMP JUMPDEST PUSH2 0xAB8 DUP4 DUP4 DUP4 PUSH1 0x1 PUSH2 0x2096 JUMP JUMPDEST PUSH0 DUP3 DUP2 MSTORE PUSH1 0x2 PUSH1 0x20 MSTORE PUSH1 0x40 DUP2 KECCAK256 SLOAD PUSH1 0x1 PUSH1 0x1 PUSH1 0xA0 SHL SUB SWAP1 DUP2 AND SWAP1 DUP4 AND ISZERO PUSH2 0x1AB9 JUMPI PUSH2 0x1AB9 DUP2 DUP5 DUP7 PUSH2 0x219A JUMP JUMPDEST PUSH1 0x1 PUSH1 0x1 PUSH1 0xA0 SHL SUB DUP2 AND ISZERO PUSH2 0x1AF3 JUMPI PUSH2 0x1AD4 PUSH0 DUP6 PUSH0 PUSH0 PUSH2 0x2096 JUMP JUMPDEST PUSH1 0x1 PUSH1 0x1 PUSH1 0xA0 SHL SUB DUP2 AND PUSH0 SWAP1 DUP2 MSTORE PUSH1 0x3 PUSH1 0x20 MSTORE PUSH1 0x40 SWAP1 KECCAK256 DUP1 SLOAD PUSH0 NOT ADD SWAP1 SSTORE JUMPDEST PUSH1 0x1 PUSH1 0x1 PUSH1 0xA0 SHL SUB DUP6 AND ISZERO PUSH2 0x1B21 JUMPI PUSH1 0x1 PUSH1 0x1 PUSH1 0xA0 SHL SUB DUP6 AND PUSH0 SWAP1 DUP2 MSTORE PUSH1 0x3 PUSH1 0x20 MSTORE PUSH1 0x40 SWAP1 KECCAK256 DUP1 SLOAD PUSH1 0x1 ADD SWAP1 SSTORE JUMPDEST PUSH0 DUP5 DUP2 MSTORE PUSH1 0x2 PUSH1 0x20 MSTORE PUSH1 0x40 DUP1 DUP3 KECCAK256 DUP1 SLOAD PUSH1 0x1 PUSH1 0x1 PUSH1 0xA0 SHL SUB NOT AND PUSH1 0x1 PUSH1 0x1 PUSH1 0xA0 SHL SUB DUP10 DUP2 AND SWAP2 DUP3 OR SWAP1 SWAP3 SSTORE SWAP2 MLOAD DUP8 SWAP4 SWAP2 DUP6 AND SWAP2 PUSH32 0xDDF252AD1BE2C89B69C2B068FC378DAA952BA7F163C4A11628F55A4DF523B3EF SWAP2 LOG4 SWAP5 SWAP4 POP POP POP POP JUMP JUMPDEST PUSH1 0x6 SLOAD PUSH1 0x1 PUSH1 0x1 PUSH1 0xA0 SHL SUB AND CALLER EQ PUSH2 0x1584 JUMPI PUSH1 0x40 MLOAD PUSH4 0x118CDAA7 PUSH1 0xE0 SHL DUP2 MSTORE CALLER PUSH1 0x4 DUP3 ADD MSTORE PUSH1 0x24 ADD PUSH2 0x869 JUMP JUMPDEST PUSH1 0x6 DUP1 SLOAD PUSH1 0x1 PUSH1 0x1 PUSH1 0xA0 SHL SUB DUP4 DUP2 AND PUSH1 0x1 PUSH1 0x1 PUSH1 0xA0 SHL SUB NOT DUP4 AND DUP2 OR SWAP1 SWAP4 SSTORE PUSH1 0x40 MLOAD SWAP2 AND SWAP2 SWAP1 DUP3 SWAP1 PUSH32 0x8BE0079C531659141344CD1FD0A4F28419497F9722A3DAAFE3B4186F6B6457E0 SWAP1 PUSH0 SWAP1 LOG3 POP POP JUMP JUMPDEST PUSH1 0x1 PUSH1 0x1 PUSH1 0xA0 SHL SUB DUP4 AND PUSH2 0x1C26 JUMPI PUSH1 0x40 MLOAD PUSH4 0xA9FBF51F PUSH1 0xE0 SHL DUP2 MSTORE PUSH0 PUSH1 0x4 DUP3 ADD MSTORE PUSH1 0x24 ADD PUSH2 0x869 JUMP JUMPDEST PUSH1 0x1 PUSH1 0x1 PUSH1 0xA0 SHL SUB DUP3 AND PUSH2 0x1C58 JUMPI PUSH1 0x40 MLOAD PUSH4 0xB611743 PUSH1 0xE3 SHL DUP2 MSTORE PUSH1 0x1 PUSH1 0x1 PUSH1 0xA0 SHL SUB DUP4 AND PUSH1 0x4 DUP3 ADD MSTORE PUSH1 0x24 ADD PUSH2 0x869 JUMP JUMPDEST PUSH1 0x1 PUSH1 0x1 PUSH1 0xA0 SHL SUB DUP4 DUP2 AND PUSH0 DUP2 DUP2 MSTORE PUSH1 0x5 PUSH1 0x20 SWAP1 DUP2 MSTORE PUSH1 0x40 DUP1 DUP4 KECCAK256 SWAP5 DUP8 AND DUP1 DUP5 MSTORE SWAP5 DUP3 MSTORE SWAP2 DUP3 SWAP1 KECCAK256 DUP1 SLOAD PUSH1 0xFF NOT AND DUP7 ISZERO ISZERO SWAP1 DUP2 OR SWAP1 SWAP2 SSTORE SWAP2 MLOAD SWAP2 DUP3 MSTORE PUSH32 0x17307EAB39AB6107E8899845AD3D59BD9653F200F220920489CA2B5937696C31 SWAP2 ADD PUSH1 0x40 MLOAD DUP1 SWAP2 SUB SWAP1 LOG3 POP POP POP JUMP JUMPDEST PUSH1 0x1 PUSH1 0x1 PUSH1 0xA0 SHL SUB DUP4 AND EXTCODESIZE ISZERO PUSH2 0xD85 JUMPI PUSH1 0x40 MLOAD PUSH4 0xA85BD01 PUSH1 0xE1 SHL DUP2 MSTORE PUSH1 0x1 PUSH1 0x1 PUSH1 0xA0 SHL SUB DUP5 AND SWAP1 PUSH4 0x150B7A02 SWAP1 PUSH2 0x1D06 SWAP1 DUP9 SWAP1 DUP9 SWAP1 DUP8 SWAP1 DUP8 SWAP1 PUSH1 0x4 ADD PUSH2 0x28CC JUMP JUMPDEST PUSH1 0x20 PUSH1 0x40 MLOAD DUP1 DUP4 SUB DUP2 PUSH0 DUP8 GAS CALL SWAP3 POP POP POP DUP1 ISZERO PUSH2 0x1D40 JUMPI POP PUSH1 0x40 DUP1 MLOAD PUSH1 0x1F RETURNDATASIZE SWAP1 DUP2 ADD PUSH1 0x1F NOT AND DUP3 ADD SWAP1 SWAP3 MSTORE PUSH2 0x1D3D SWAP2 DUP2 ADD SWAP1 PUSH2 0x2908 JUMP JUMPDEST PUSH1 0x1 JUMPDEST PUSH2 0x1DA7 JUMPI RETURNDATASIZE DUP1 DUP1 ISZERO PUSH2 0x1D6D JUMPI PUSH1 0x40 MLOAD SWAP2 POP PUSH1 0x1F NOT PUSH1 0x3F RETURNDATASIZE ADD AND DUP3 ADD PUSH1 0x40 MSTORE RETURNDATASIZE DUP3 MSTORE RETURNDATASIZE PUSH0 PUSH1 0x20 DUP5 ADD RETURNDATACOPY PUSH2 0x1D72 JUMP JUMPDEST PUSH1 0x60 SWAP2 POP JUMPDEST POP DUP1 MLOAD PUSH0 SUB PUSH2 0x1D9F JUMPI PUSH1 0x40 MLOAD PUSH4 0x32505749 PUSH1 0xE1 SHL DUP2 MSTORE PUSH1 0x1 PUSH1 0x1 PUSH1 0xA0 SHL SUB DUP6 AND PUSH1 0x4 DUP3 ADD MSTORE PUSH1 0x24 ADD PUSH2 0x869 JUMP JUMPDEST DUP1 MLOAD PUSH1 0x20 DUP3 ADD REVERT JUMPDEST PUSH1 0x1 PUSH1 0x1 PUSH1 0xE0 SHL SUB NOT DUP2 AND PUSH4 0xA85BD01 PUSH1 0xE1 SHL EQ PUSH2 0x1DE3 JUMPI PUSH1 0x40 MLOAD PUSH4 0x32505749 PUSH1 0xE1 SHL DUP2 MSTORE PUSH1 0x1 PUSH1 0x1 PUSH1 0xA0 SHL SUB DUP6 AND PUSH1 0x4 DUP3 ADD MSTORE PUSH1 0x24 ADD PUSH2 0x869 JUMP JUMPDEST POP POP POP POP POP POP JUMP JUMPDEST PUSH1 0x1 PUSH1 0x1 PUSH1 0xA0 SHL SUB DUP2 AND PUSH0 SWAP1 DUP2 MSTORE PUSH1 0x15 PUSH1 0x20 SWAP1 DUP2 MSTORE PUSH1 0x40 DUP1 DUP4 KECCAK256 DUP1 SLOAD DUP3 MLOAD DUP2 DUP6 MUL DUP2 ADD DUP6 ADD SWAP1 SWAP4 MSTORE DUP1 DUP4 MSTORE DUP5 SWAP4 DUP4 ADD DUP3 DUP3 DUP1 ISZERO PUSH2 0x1E45 JUMPI PUSH1 0x20 MUL DUP3 ADD SWAP2 SWAP1 PUSH0 MSTORE PUSH1 0x20 PUSH0 KECCAK256 SWAP1 JUMPDEST DUP2 SLOAD DUP2 MSTORE PUSH1 0x20 ADD SWAP1 PUSH1 0x1 ADD SWAP1 DUP1 DUP4 GT PUSH2 0x1E31 JUMPI JUMPDEST POP SWAP4 SWAP5 POP PUSH0 SWAP4 POP POP POP POP JUMPDEST DUP2 MLOAD DUP2 LT ISZERO PUSH2 0x1EF4 JUMPI PUSH0 PUSH1 0x14 PUSH0 DUP5 DUP5 DUP2 MLOAD DUP2 LT PUSH2 0x1E6F JUMPI PUSH2 0x1E6F PUSH2 0x2876 JUMP JUMPDEST PUSH1 0x20 SWAP1 DUP2 MUL SWAP2 SWAP1 SWAP2 ADD DUP2 ADD MLOAD DUP3 MSTORE DUP2 DUP2 ADD SWAP3 SWAP1 SWAP3 MSTORE PUSH1 0x40 SWAP1 DUP2 ADD PUSH0 KECCAK256 DUP2 MLOAD PUSH1 0x80 DUP2 ADD DUP4 MSTORE SWAP1 SLOAD PUSH1 0xFF DUP1 DUP3 AND DUP4 MSTORE PUSH2 0x100 DUP3 DIV DUP2 AND SWAP5 DUP4 ADD DUP6 SWAP1 MSTORE PUSH3 0x10000 DUP3 DIV DUP2 AND SWAP4 DUP4 ADD DUP5 SWAP1 MSTORE PUSH4 0x1000000 SWAP1 SWAP2 DIV AND PUSH1 0x60 DUP3 ADD DUP2 SWAP1 MSTORE SWAP1 SWAP4 POP SWAP2 PUSH2 0x1ED5 SWAP2 SWAP1 PUSH2 0x27EB JUMP JUMPDEST PUSH2 0x1EDF SWAP2 SWAP1 PUSH2 0x27EB JUMP JUMPDEST PUSH2 0x1EE9 SWAP1 DUP6 PUSH2 0x27EB JUMP JUMPDEST SWAP4 POP POP PUSH1 0x1 ADD PUSH2 0x1E50 JUMP JUMPDEST POP POP SWAP2 SWAP1 POP JUMP JUMPDEST PUSH1 0x60 PUSH0 PUSH2 0x1F07 DUP4 PUSH2 0x21FE JUMP JUMPDEST PUSH1 0x1 ADD SWAP1 POP PUSH0 DUP2 PUSH8 0xFFFFFFFFFFFFFFFF DUP2 GT ISZERO PUSH2 0x1F26 JUMPI PUSH2 0x1F26 PUSH2 0x2661 JUMP JUMPDEST PUSH1 0x40 MLOAD SWAP1 DUP1 DUP3 MSTORE DUP1 PUSH1 0x1F ADD PUSH1 0x1F NOT AND PUSH1 0x20 ADD DUP3 ADD PUSH1 0x40 MSTORE DUP1 ISZERO PUSH2 0x1F50 JUMPI PUSH1 0x20 DUP3 ADD DUP2 DUP1 CALLDATASIZE DUP4 CALLDATACOPY ADD SWAP1 POP JUMPDEST POP SWAP1 POP DUP2 DUP2 ADD PUSH1 0x20 ADD JUMPDEST PUSH0 NOT ADD PUSH16 0x181899199A1A9B1B9C1CB0B131B232B3 PUSH1 0x81 SHL PUSH1 0xA DUP7 MOD BYTE DUP2 MSTORE8 PUSH1 0xA DUP6 DIV SWAP5 POP DUP5 PUSH2 0x1F5A JUMPI POP SWAP4 SWAP3 POP POP POP JUMP JUMPDEST CALLER PUSH0 DUP2 DUP2 MSTORE PUSH1 0x16 PUSH1 0x20 SWAP1 DUP2 MSTORE PUSH1 0x40 DUP1 DUP4 KECCAK256 PUSH1 0x4 ADD SLOAD SWAP1 MLOAD SWAP3 SWAP4 DUP5 SWAP4 DUP5 SWAP4 PUSH1 0x64 SWAP4 PUSH2 0x1FE4 SWAP4 PREVRANDAO SWAP4 TIMESTAMP SWAP4 SWAP2 SWAP3 SWAP2 ADD SWAP4 DUP5 MSTORE PUSH1 0x20 DUP5 ADD SWAP3 SWAP1 SWAP3 MSTORE PUSH1 0x60 SHL PUSH12 0xFFFFFFFFFFFFFFFFFFFFFFFF NOT AND PUSH1 0x40 DUP4 ADD MSTORE PUSH1 0x54 DUP3 ADD MSTORE PUSH1 0x74 ADD SWAP1 JUMP JUMPDEST PUSH1 0x40 MLOAD PUSH1 0x20 DUP2 DUP4 SUB SUB DUP2 MSTORE SWAP1 PUSH1 0x40 MSTORE DUP1 MLOAD SWAP1 PUSH1 0x20 ADD KECCAK256 PUSH0 SHR PUSH2 0x2006 SWAP2 SWAP1 PUSH2 0x2923 JUMP JUMPDEST SWAP1 POP PUSH0 DUP1 JUMPDEST PUSH1 0x6 DUP2 PUSH1 0xFF AND LT ISZERO PUSH2 0x206F JUMPI PUSH1 0xD DUP2 PUSH1 0xFF AND PUSH1 0x6 DUP2 LT PUSH2 0x202D JUMPI PUSH2 0x202D PUSH2 0x2876 JUMP JUMPDEST ADD SLOAD PUSH2 0x2039 SWAP1 DUP4 PUSH2 0x27EB JUMP JUMPDEST SWAP2 POP DUP2 DUP4 LT ISZERO PUSH2 0x2067 JUMPI DUP1 SWAP5 POP PUSH1 0x7 DUP2 PUSH1 0xFF AND PUSH1 0x6 DUP2 LT PUSH2 0x205C JUMPI PUSH2 0x205C PUSH2 0x2876 JUMP JUMPDEST ADD SLOAD SWAP4 POP POP POP POP SWAP1 SWAP2 JUMP JUMPDEST PUSH1 0x1 ADD PUSH2 0x200B JUMP JUMPDEST POP POP PUSH1 0x9 SLOAD PUSH1 0x2 SWAP5 SWAP1 SWAP4 POP SWAP2 POP POP JUMP JUMPDEST PUSH2 0x2089 DUP4 DUP4 PUSH2 0x22D5 JUMP JUMPDEST PUSH2 0xAB8 CALLER PUSH0 DUP6 DUP6 DUP6 PUSH2 0x1CC4 JUMP JUMPDEST DUP1 DUP1 PUSH2 0x20AA JUMPI POP PUSH1 0x1 PUSH1 0x1 PUSH1 0xA0 SHL SUB DUP3 AND ISZERO ISZERO JUMPDEST ISZERO PUSH2 0x216B JUMPI PUSH0 PUSH2 0x20B9 DUP5 PUSH2 0x1A48 JUMP JUMPDEST SWAP1 POP PUSH1 0x1 PUSH1 0x1 PUSH1 0xA0 SHL SUB DUP4 AND ISZERO DUP1 ISZERO SWAP1 PUSH2 0x20E5 JUMPI POP DUP3 PUSH1 0x1 PUSH1 0x1 PUSH1 0xA0 SHL SUB AND DUP2 PUSH1 0x1 PUSH1 0x1 PUSH1 0xA0 SHL SUB AND EQ ISZERO JUMPDEST DUP1 ISZERO PUSH2 0x20F8 JUMPI POP PUSH2 0x20F6 DUP2 DUP5 PUSH2 0x1821 JUMP JUMPDEST ISZERO JUMPDEST ISZERO PUSH2 0x2121 JUMPI PUSH1 0x40 MLOAD PUSH4 0xA9FBF51F PUSH1 0xE0 SHL DUP2 MSTORE PUSH1 0x1 PUSH1 0x1 PUSH1 0xA0 SHL SUB DUP5 AND PUSH1 0x4 DUP3 ADD MSTORE PUSH1 0x24 ADD PUSH2 0x869 JUMP JUMPDEST DUP2 ISZERO PUSH2 0x2169 JUMPI DUP4 DUP6 PUSH1 0x1 PUSH1 0x1 PUSH1 0xA0 SHL SUB AND DUP3 PUSH1 0x1 PUSH1 0x1 PUSH1 0xA0 SHL SUB AND PUSH32 0x8C5BE1E5EBEC7D5BD14F71427D1E84F3DD0314C0F7B2291E5B200AC8C7C3B925 PUSH1 0x40 MLOAD PUSH1 0x40 MLOAD DUP1 SWAP2 SUB SWAP1 LOG4 JUMPDEST POP JUMPDEST POP POP PUSH0 SWAP1 DUP2 MSTORE PUSH1 0x4 PUSH1 0x20 MSTORE PUSH1 0x40 SWAP1 KECCAK256 DUP1 SLOAD PUSH1 0x1 PUSH1 0x1 PUSH1 0xA0 SHL SUB NOT AND PUSH1 0x1 PUSH1 0x1 PUSH1 0xA0 SHL SUB SWAP3 SWAP1 SWAP3 AND SWAP2 SWAP1 SWAP2 OR SWAP1 SSTORE JUMP JUMPDEST PUSH2 0x21A5 DUP4 DUP4 DUP4 PUSH2 0x2336 JUMP JUMPDEST PUSH2 0xAB8 JUMPI PUSH1 0x1 PUSH1 0x1 PUSH1 0xA0 SHL SUB DUP4 AND PUSH2 0x21D3 JUMPI PUSH1 0x40 MLOAD PUSH4 0x7E273289 PUSH1 0xE0 SHL DUP2 MSTORE PUSH1 0x4 DUP2 ADD DUP3 SWAP1 MSTORE PUSH1 0x24 ADD PUSH2 0x869 JUMP JUMPDEST PUSH1 0x40 MLOAD PUSH4 0x177E802F PUSH1 0xE0 SHL DUP2 MSTORE PUSH1 0x1 PUSH1 0x1 PUSH1 0xA0 SHL SUB DUP4 AND PUSH1 0x4 DUP3 ADD MSTORE PUSH1 0x24 DUP2 ADD DUP3 SWAP1 MSTORE PUSH1 0x44 ADD PUSH2 0x869 JUMP JUMPDEST PUSH0 DUP1 PUSH19 0x184F03E93FF9F4DAA797ED6E38ED64BF6A1F01 PUSH1 0x40 SHL DUP4 LT PUSH2 0x223C JUMPI PUSH19 0x184F03E93FF9F4DAA797ED6E38ED64BF6A1F01 PUSH1 0x40 SHL DUP4 DIV SWAP3 POP PUSH1 0x40 ADD JUMPDEST PUSH14 0x4EE2D6D415B85ACEF8100000000 DUP4 LT PUSH2 0x2268 JUMPI PUSH14 0x4EE2D6D415B85ACEF8100000000 DUP4 DIV SWAP3 POP PUSH1 0x20 ADD JUMPDEST PUSH7 0x2386F26FC10000 DUP4 LT PUSH2 0x2286 JUMPI PUSH7 0x2386F26FC10000 DUP4 DIV SWAP3 POP PUSH1 0x10 ADD JUMPDEST PUSH4 0x5F5E100 DUP4 LT PUSH2 0x229E JUMPI PUSH4 0x5F5E100 DUP4 DIV SWAP3 POP PUSH1 0x8 ADD JUMPDEST PUSH2 0x2710 DUP4 LT PUSH2 0x22B2 JUMPI PUSH2 0x2710 DUP4 DIV SWAP3 POP PUSH1 0x4 ADD JUMPDEST PUSH1 0x64 DUP4 LT PUSH2 0x22C4 JUMPI PUSH1 0x64 DUP4 DIV SWAP3 POP PUSH1 0x2 ADD JUMPDEST PUSH1 0xA DUP4 LT PUSH2 0x813 JUMPI PUSH1 0x1 ADD SWAP3 SWAP2 POP POP JUMP JUMPDEST PUSH1 0x1 PUSH1 0x1 PUSH1 0xA0 SHL SUB DUP3 AND PUSH2 0x22FE JUMPI PUSH1 0x40 MLOAD PUSH4 0x32505749 PUSH1 0xE1 SHL DUP2 MSTORE PUSH0 PUSH1 0x4 DUP3 ADD MSTORE PUSH1 0x24 ADD PUSH2 0x869 JUMP JUMPDEST PUSH0 PUSH2 0x230A DUP4 DUP4 PUSH0 PUSH2 0x1A8D JUMP JUMPDEST SWAP1 POP PUSH1 0x1 PUSH1 0x1 PUSH1 0xA0 SHL SUB DUP2 AND ISZERO PUSH2 0xAB8 JUMPI PUSH1 0x40 MLOAD PUSH4 0x39E35637 PUSH1 0xE1 SHL DUP2 MSTORE PUSH0 PUSH1 0x4 DUP3 ADD MSTORE PUSH1 0x24 ADD PUSH2 0x869 JUMP JUMPDEST PUSH0 PUSH1 0x1 PUSH1 0x1 PUSH1 0xA0 SHL SUB DUP4 AND ISZERO DUP1 ISZERO SWAP1 PUSH2 0xED8 JUMPI POP DUP3 PUSH1 0x1 PUSH1 0x1 PUSH1 0xA0 SHL SUB AND DUP5 PUSH1 0x1 PUSH1 0x1 PUSH1 0xA0 SHL SUB AND EQ DUP1 PUSH2 0x236F JUMPI POP PUSH2 0x236F DUP5 DUP5 PUSH2 0x1821 JUMP JUMPDEST DUP1 PUSH2 0xED8 JUMPI POP POP PUSH0 SWAP1 DUP2 MSTORE PUSH1 0x4 PUSH1 0x20 MSTORE PUSH1 0x40 SWAP1 KECCAK256 SLOAD PUSH1 0x1 PUSH1 0x1 PUSH1 0xA0 SHL SUB SWAP1 DUP2 AND SWAP2 AND EQ SWAP2 SWAP1 POP JUMP JUMPDEST PUSH0 PUSH1 0x20 DUP3 DUP5 SUB SLT ISZERO PUSH2 0x23A7 JUMPI PUSH0 PUSH0 REVERT JUMPDEST POP CALLDATALOAD SWAP2 SWAP1 POP JUMP JUMPDEST PUSH1 0x1 PUSH1 0x1 PUSH1 0xE0 SHL SUB NOT DUP2 AND DUP2 EQ PUSH2 0x1978 JUMPI PUSH0 PUSH0 REVERT JUMPDEST PUSH0 PUSH1 0x20 DUP3 DUP5 SUB SLT ISZERO PUSH2 0x23D3 JUMPI PUSH0 PUSH0 REVERT JUMPDEST DUP2 CALLDATALOAD PUSH2 0x17CB DUP2 PUSH2 0x23AE JUMP JUMPDEST DUP1 CALLDATALOAD PUSH1 0xFF DUP2 AND DUP2 EQ PUSH2 0x23EE JUMPI PUSH0 PUSH0 REVERT JUMPDEST SWAP2 SWAP1 POP JUMP JUMPDEST PUSH0 PUSH0 PUSH1 0x40 DUP4 DUP6 SUB SLT ISZERO PUSH2 0x2404 JUMPI PUSH0 PUSH0 REVERT JUMPDEST PUSH2 0x240D DUP4 PUSH2 0x23DE JUMP JUMPDEST SWAP5 PUSH1 0x20 SWAP4 SWAP1 SWAP4 ADD CALLDATALOAD SWAP4 POP POP POP JUMP JUMPDEST PUSH0 PUSH0 PUSH1 0x40 DUP4 DUP6 SUB SLT ISZERO PUSH2 0x242C JUMPI PUSH0 PUSH0 REVERT JUMPDEST DUP3 CALLDATALOAD SWAP2 POP PUSH2 0x243C PUSH1 0x20 DUP5 ADD PUSH2 0x23DE JUMP JUMPDEST SWAP1 POP SWAP3 POP SWAP3 SWAP1 POP JUMP JUMPDEST PUSH0 DUP2 MLOAD DUP1 DUP5 MSTORE DUP1 PUSH1 0x20 DUP5 ADD PUSH1 0x20 DUP7 ADD MCOPY PUSH0 PUSH1 0x20 DUP3 DUP7 ADD ADD MSTORE PUSH1 0x20 PUSH1 0x1F NOT PUSH1 0x1F DUP4 ADD AND DUP6 ADD ADD SWAP2 POP POP SWAP3 SWAP2 POP POP JUMP JUMPDEST PUSH1 0x20 DUP2 MSTORE PUSH0 PUSH2 0x17CB PUSH1 0x20 DUP4 ADD DUP5 PUSH2 0x2445 JUMP JUMPDEST DUP1 CALLDATALOAD PUSH1 0x1 PUSH1 0x1 PUSH1 0xA0 SHL SUB DUP2 AND DUP2 EQ PUSH2 0x23EE JUMPI PUSH0 PUSH0 REVERT JUMPDEST PUSH0 PUSH1 0x20 DUP3 DUP5 SUB SLT ISZERO PUSH2 0x24AB JUMPI PUSH0 PUSH0 REVERT JUMPDEST PUSH2 0x17CB DUP3 PUSH2 0x2485 JUMP JUMPDEST PUSH0 PUSH0 PUSH1 0x40 DUP4 DUP6 SUB SLT ISZERO PUSH2 0x24C5 JUMPI PUSH0 PUSH0 REVERT JUMPDEST PUSH2 0x240D DUP4 PUSH2 0x2485 JUMP JUMPDEST PUSH0 PUSH0 PUSH1 0x40 DUP4 DUP6 SUB SLT ISZERO PUSH2 0x24DF JUMPI PUSH0 PUSH0 REVERT JUMPDEST DUP3 CALLDATALOAD SWAP2 POP PUSH2 0x243C PUSH1 0x20 DUP5 ADD PUSH2 0x2485 JUMP JUMPDEST PUSH0 PUSH0 PUSH0 PUSH1 0x60 DUP5 DUP7 SUB SLT ISZERO PUSH2 0x2501 JUMPI PUSH0 PUSH0 REVERT JUMPDEST PUSH2 0x250A DUP5 PUSH2 0x2485 JUMP JUMPDEST SWAP3 POP PUSH2 0x2518 PUSH1 0x20 DUP6 ADD PUSH2 0x2485 JUMP JUMPDEST SWAP3 SWAP6 SWAP3 SWAP5 POP POP POP PUSH1 0x40 SWAP2 SWAP1 SWAP2 ADD CALLDATALOAD SWAP1 JUMP JUMPDEST PUSH0 PUSH0 DUP4 PUSH1 0x1F DUP5 ADD SLT PUSH2 0x2539 JUMPI PUSH0 PUSH0 REVERT JUMPDEST POP DUP2 CALLDATALOAD PUSH8 0xFFFFFFFFFFFFFFFF DUP2 GT ISZERO PUSH2 0x2550 JUMPI PUSH0 PUSH0 REVERT JUMPDEST PUSH1 0x20 DUP4 ADD SWAP2 POP DUP4 PUSH1 0x20 DUP3 PUSH1 0x5 SHL DUP6 ADD ADD GT ISZERO PUSH2 0x256A JUMPI PUSH0 PUSH0 REVERT JUMPDEST SWAP3 POP SWAP3 SWAP1 POP JUMP JUMPDEST PUSH0 PUSH0 PUSH0 PUSH0 PUSH1 0x40 DUP6 DUP8 SUB SLT ISZERO PUSH2 0x2584 JUMPI PUSH0 PUSH0 REVERT JUMPDEST DUP5 CALLDATALOAD PUSH8 0xFFFFFFFFFFFFFFFF DUP2 GT ISZERO PUSH2 0x259A JUMPI PUSH0 PUSH0 REVERT JUMPDEST PUSH2 0x25A6 DUP8 DUP3 DUP9 ADD PUSH2 0x2529 JUMP JUMPDEST SWAP1 SWAP6 POP SWAP4 POP POP PUSH1 0x20 DUP6 ADD CALLDATALOAD PUSH8 0xFFFFFFFFFFFFFFFF DUP2 GT ISZERO PUSH2 0x25C5 JUMPI PUSH0 PUSH0 REVERT JUMPDEST PUSH2 0x25D1 DUP8 DUP3 DUP9 ADD PUSH2 0x2529 JUMP JUMPDEST SWAP6 SWAP9 SWAP5 SWAP8 POP SWAP6 POP POP POP POP JUMP JUMPDEST PUSH1 0x20 DUP1 DUP3 MSTORE DUP3 MLOAD DUP3 DUP3 ADD DUP2 SWAP1 MSTORE PUSH0 SWAP2 DUP5 ADD SWAP1 PUSH1 0x40 DUP5 ADD SWAP1 DUP4 JUMPDEST DUP2 DUP2 LT ISZERO PUSH2 0x2614 JUMPI DUP4 MLOAD DUP4 MSTORE PUSH1 0x20 SWAP4 DUP5 ADD SWAP4 SWAP1 SWAP3 ADD SWAP2 PUSH1 0x1 ADD PUSH2 0x25F6 JUMP JUMPDEST POP SWAP1 SWAP6 SWAP5 POP POP POP POP POP JUMP JUMPDEST DUP1 ISZERO ISZERO DUP2 EQ PUSH2 0x1978 JUMPI PUSH0 PUSH0 REVERT JUMPDEST PUSH0 PUSH0 PUSH1 0x40 DUP4 DUP6 SUB SLT ISZERO PUSH2 0x263D JUMPI PUSH0 PUSH0 REVERT JUMPDEST PUSH2 0x2646 DUP4 PUSH2 0x2485 JUMP JUMPDEST SWAP2 POP PUSH1 0x20 DUP4 ADD CALLDATALOAD PUSH2 0x2656 DUP2 PUSH2 0x261F JUMP JUMPDEST DUP1 SWAP2 POP POP SWAP3 POP SWAP3 SWAP1 POP JUMP JUMPDEST PUSH4 0x4E487B71 PUSH1 0xE0 SHL PUSH0 MSTORE PUSH1 0x41 PUSH1 0x4 MSTORE PUSH1 0x24 PUSH0 REVERT JUMPDEST PUSH0 PUSH0 PUSH0 PUSH0 PUSH1 0x80 DUP6 DUP8 SUB SLT ISZERO PUSH2 0x2688 JUMPI PUSH0 PUSH0 REVERT JUMPDEST PUSH2 0x2691 DUP6 PUSH2 0x2485 JUMP JUMPDEST SWAP4 POP PUSH2 0x269F PUSH1 0x20 DUP7 ADD PUSH2 0x2485 JUMP JUMPDEST SWAP3 POP PUSH1 0x40 DUP6 ADD CALLDATALOAD SWAP2 POP PUSH1 0x60 DUP6 ADD CALLDATALOAD PUSH8 0xFFFFFFFFFFFFFFFF DUP2 GT ISZERO PUSH2 0x26C1 JUMPI PUSH0 PUSH0 REVERT JUMPDEST DUP6 ADD PUSH1 0x1F DUP2 ADD DUP8 SGT PUSH2 0x26D1 JUMPI PUSH0 PUSH0 REVERT JUMPDEST DUP1 CALLDATALOAD PUSH8 0xFFFFFFFFFFFFFFFF DUP2 GT ISZERO PUSH2 0x26EB JUMPI PUSH2 0x26EB PUSH2 0x2661 JUMP JUMPDEST PUSH1 0x40 MLOAD PUSH1 0x1F DUP3 ADD PUSH1 0x1F NOT SWAP1 DUP2 AND PUSH1 0x3F ADD AND DUP2 ADD PUSH8 0xFFFFFFFFFFFFFFFF DUP2 GT DUP3 DUP3 LT OR ISZERO PUSH2 0x271A JUMPI PUSH2 0x271A PUSH2 0x2661 JUMP JUMPDEST PUSH1 0x40 MSTORE DUP2 DUP2 MSTORE DUP3 DUP3 ADD PUSH1 0x20 ADD DUP10 LT ISZERO PUSH2 0x2731 JUMPI PUSH0 PUSH0 REVERT JUMPDEST DUP2 PUSH1 0x20 DUP5 ADD PUSH1 0x20 DUP4 ADD CALLDATACOPY PUSH0 PUSH1 0x20 DUP4 DUP4 ADD ADD MSTORE DUP1 SWAP4 POP POP POP POP SWAP3 SWAP6 SWAP2 SWAP5 POP SWAP3 POP JUMP JUMPDEST PUSH0 PUSH0 PUSH1 0x40 DUP4 DUP6 SUB SLT ISZERO PUSH2 0x2763 JUMPI PUSH0 PUSH0 REVERT JUMPDEST PUSH2 0x276C DUP4 PUSH2 0x2485 JUMP JUMPDEST SWAP2 POP PUSH2 0x243C PUSH1 0x20 DUP5 ADD PUSH2 0x2485 JUMP JUMPDEST PUSH4 0x4E487B71 PUSH1 0xE0 SHL PUSH0 MSTORE PUSH1 0x11 PUSH1 0x4 MSTORE PUSH1 0x24 PUSH0 REVERT JUMPDEST DUP1 DUP3 MUL DUP2 ISZERO DUP3 DUP3 DIV DUP5 EQ OR PUSH2 0x813 JUMPI PUSH2 0x813 PUSH2 0x277A JUMP JUMPDEST PUSH0 PUSH1 0x20 DUP3 DUP5 SUB SLT ISZERO PUSH2 0x27B5 JUMPI PUSH0 PUSH0 REVERT JUMPDEST DUP2 MLOAD PUSH2 0x17CB DUP2 PUSH2 0x261F JUMP JUMPDEST PUSH0 PUSH1 0x1 DUP3 ADD PUSH2 0x27D1 JUMPI PUSH2 0x27D1 PUSH2 0x277A JUMP JUMPDEST POP PUSH1 0x1 ADD SWAP1 JUMP JUMPDEST DUP2 DUP2 SUB DUP2 DUP2 GT ISZERO PUSH2 0x813 JUMPI PUSH2 0x813 PUSH2 0x277A JUMP JUMPDEST DUP1 DUP3 ADD DUP1 DUP3 GT ISZERO PUSH2 0x813 JUMPI PUSH2 0x813 PUSH2 0x277A JUMP JUMPDEST PUSH1 0xFF DUP2 DUP2 AND DUP4 DUP3 AND ADD SWAP1 DUP2 GT ISZERO PUSH2 0x813 JUMPI PUSH2 0x813 PUSH2 0x277A JUMP JUMPDEST PUSH1 0x1 DUP2 DUP2 SHR SWAP1 DUP3 AND DUP1 PUSH2 0x282B JUMPI PUSH1 0x7F DUP3 AND SWAP2 POP JUMPDEST PUSH1 0x20 DUP3 LT DUP2 SUB PUSH2 0x2849 JUMPI PUSH4 0x4E487B71 PUSH1 0xE0 SHL PUSH0 MSTORE PUSH1 0x22 PUSH1 0x4 MSTORE PUSH1 0x24 PUSH0 REVERT JUMPDEST POP SWAP2 SWAP1 POP JUMP JUMPDEST PUSH4 0x4E487B71 PUSH1 0xE0 SHL PUSH0 MSTORE PUSH1 0x12 PUSH1 0x4 MSTORE PUSH1 0x24 PUSH0 REVERT JUMPDEST PUSH0 DUP3 PUSH2 0x2871 JUMPI PUSH2 0x2871 PUSH2 0x284F JUMP JUMPDEST POP DIV SWAP1 JUMP JUMPDEST PUSH4 0x4E487B71 PUSH1 0xE0 SHL PUSH0 MSTORE PUSH1 0x32 PUSH1 0x4 MSTORE PUSH1 0x24 PUSH0 REVERT JUMPDEST PUSH0 PUSH1 0x20 DUP3 DUP5 SUB SLT ISZERO PUSH2 0x289A JUMPI PUSH0 PUSH0 REVERT JUMPDEST POP MLOAD SWAP2 SWAP1 POP JUMP JUMPDEST PUSH0 DUP2 MLOAD DUP1 PUSH1 0x20 DUP5 ADD DUP6 MCOPY PUSH0 SWAP4 ADD SWAP3 DUP4 MSTORE POP SWAP1 SWAP2 SWAP1 POP JUMP JUMPDEST PUSH0 PUSH2 0xED8 PUSH2 0x28C6 DUP4 DUP7 PUSH2 0x28A1 JUMP JUMPDEST DUP5 PUSH2 0x28A1 JUMP JUMPDEST PUSH1 0x1 PUSH1 0x1 PUSH1 0xA0 SHL SUB DUP6 DUP2 AND DUP3 MSTORE DUP5 AND PUSH1 0x20 DUP3 ADD MSTORE PUSH1 0x40 DUP2 ADD DUP4 SWAP1 MSTORE PUSH1 0x80 PUSH1 0x60 DUP3 ADD DUP2 SWAP1 MSTORE PUSH0 SWAP1 PUSH2 0x28FE SWAP1 DUP4 ADD DUP5 PUSH2 0x2445 JUMP JUMPDEST SWAP7 SWAP6 POP POP POP POP POP POP JUMP JUMPDEST PUSH0 PUSH1 0x20 DUP3 DUP5 SUB SLT ISZERO PUSH2 0x2918 JUMPI PUSH0 PUSH0 REVERT JUMPDEST DUP2 MLOAD PUSH2 0x17CB DUP2 PUSH2 0x23AE JUMP JUMPDEST PUSH0 DUP3 PUSH2 0x2931 JUMPI PUSH2 0x2931 PUSH2 0x284F JUMP JUMPDEST POP MOD SWAP1 JUMP INVALID LOG2 PUSH5 0x6970667358 0x22 SLT KECCAK256 SWAP14 0xC9 0xAB EXTCODECOPY 0x4C CODECOPY 0xB6 0xA5 PUSH25 0x4987DCF56567652A9BBB3EC2627E4F3C23C8400E06CB196473 PUSH16 0x6C634300081E00330000000000000000 "
		},
		"gasEstimates": {
			"creation": {
				"codeDepositCost": "2120800",
				"executionCost": "infinite",
				"totalCost": "infinite"
			},
			"external": {
				"DAILY_ENERGY()": "327",
				"MAX_CLASSES()": "305",
				"MAX_PER_TX()": "326",
				"MINT_PRICE()": "239",
				"SPIN_COST()": "306",
				"STAT_INITIAL()": "314",
				"STAT_MAX()": "270",
				"STREAK7_ENERGY()": "284",
				"WEEK_SECONDS()": "327",
				"approve(address,uint256)": "31530",
				"balanceOf(address)": "2740",
				"batchSetEcosystemBonus(address[],uint256[])": "infinite",
				"canCheckIn(address)": "2795",
				"checkIn()": "infinite",
				"computeScore(address)": "infinite",
				"currentWeekId()": "380",
				"ecosystemBonus(address)": "2584",
				"getApproved(uint256)": "infinite",
				"getHero(uint256)": "3002",
				"getPlayer(address)": "13624",
				"getWeeklyScore(address)": "infinite",
				"heroClass(uint256)": "2561",
				"heroStats(uint256)": "2633",
				"isApprovedForAll(address,address)": "infinite",
				"mintHero(uint8,uint256)": "infinite",
				"name()": "infinite",
				"nextCheckInReward(address)": "infinite",
				"owner()": "2464",
				"ownerOf(uint256)": "infinite",
				"players(address)": "13231",
				"renounceOwnership()": "infinite",
				"safeTransferFrom(address,address,uint256)": "infinite",
				"safeTransferFrom(address,address,uint256,bytes)": "infinite",
				"setApprovalForAll(address,bool)": "26786",
				"setEcosystemBonus(address,uint256)": "infinite",
				"spin()": "infinite",
				"supportsInterface(bytes4)": "587",
				"symbol()": "infinite",
				"tokenURI(uint256)": "infinite",
				"tokensOfOwner(address)": "infinite",
				"totalMinted()": "2480",
				"transferFrom(address,address,uint256)": "infinite",
				"transferOwnership(address)": "28443",
				"upgradeStat(uint256,uint8)": "infinite",
				"usdc()": "infinite",
				"weeklyScores(uint256,address)": "2725",
				"withdraw()": "infinite"
			},
			"internal": {
				"_executeSpin()": "infinite",
				"_sumHeroStats(address)": "infinite",
				"_updateWeeklyScore(address)": "infinite"
			}
		},
		"methodIdentifiers": {
			"DAILY_ENERGY()": "b8050996",
			"MAX_CLASSES()": "c90e74ee",
			"MAX_PER_TX()": "f43a22dc",
			"MINT_PRICE()": "c002d23d",
			"SPIN_COST()": "289e144b",
			"STAT_INITIAL()": "5d86e6c4",
			"STAT_MAX()": "4e3dc2f1",
			"STREAK7_ENERGY()": "2828ee7f",
			"WEEK_SECONDS()": "cd671a58",
			"approve(address,uint256)": "095ea7b3",
			"balanceOf(address)": "70a08231",
			"batchSetEcosystemBonus(address[],uint256[])": "24a753cb",
			"canCheckIn(address)": "fb896848",
			"checkIn()": "183ff085",
			"computeScore(address)": "c5d46dfc",
			"currentWeekId()": "8bc60824",
			"ecosystemBonus(address)": "77189774",
			"getApproved(uint256)": "081812fc",
			"getHero(uint256)": "21d80111",
			"getPlayer(address)": "5c12cd4b",
			"getWeeklyScore(address)": "dde1d996",
			"heroClass(uint256)": "ae9f5d15",
			"heroStats(uint256)": "01bd7ec6",
			"isApprovedForAll(address,address)": "e985e9c5",
			"mintHero(uint8,uint256)": "04a91c3b",
			"name()": "06fdde03",
			"nextCheckInReward(address)": "0816f909",
			"owner()": "8da5cb5b",
			"ownerOf(uint256)": "6352211e",
			"players(address)": "e2eb41ff",
			"renounceOwnership()": "715018a6",
			"safeTransferFrom(address,address,uint256)": "42842e0e",
			"safeTransferFrom(address,address,uint256,bytes)": "b88d4fde",
			"setApprovalForAll(address,bool)": "a22cb465",
			"setEcosystemBonus(address,uint256)": "904cfae5",
			"spin()": "f0acd7d5",
			"supportsInterface(bytes4)": "01ffc9a7",
			"symbol()": "95d89b41",
			"tokenURI(uint256)": "c87b56dd",
			"tokensOfOwner(address)": "8462151c",
			"totalMinted()": "a2309ff8",
			"transferFrom(address,address,uint256)": "23b872dd",
			"transferOwnership(address)": "f2fde38b",
			"upgradeStat(uint256,uint8)": "04cbac28",
			"usdc()": "3e413bee",
			"weeklyScores(uint256,address)": "1763c8f7",
			"withdraw()": "3ccfd60b"
		}
	},
	"abi": [
		{
			"inputs": [
				{
					"internalType": "address",
					"name": "usdcAddress",
					"type": "address"
				}
			],
			"stateMutability": "nonpayable",
			"type": "constructor"
		},
		{
			"inputs": [
				{
					"internalType": "address",
					"name": "sender",
					"type": "address"
				},
				{
					"internalType": "uint256",
					"name": "tokenId",
					"type": "uint256"
				},
				{
					"internalType": "address",
					"name": "owner",
					"type": "address"
				}
			],
			"name": "ERC721IncorrectOwner",
			"type": "error"
		},
		{
			"inputs": [
				{
					"internalType": "address",
					"name": "operator",
					"type": "address"
				},
				{
					"internalType": "uint256",
					"name": "tokenId",
					"type": "uint256"
				}
			],
			"name": "ERC721InsufficientApproval",
			"type": "error"
		},
		{
			"inputs": [
				{
					"internalType": "address",
					"name": "approver",
					"type": "address"
				}
			],
			"name": "ERC721InvalidApprover",
			"type": "error"
		},
		{
			"inputs": [
				{
					"internalType": "address",
					"name": "operator",
					"type": "address"
				}
			],
			"name": "ERC721InvalidOperator",
			"type": "error"
		},
		{
			"inputs": [
				{
					"internalType": "address",
					"name": "owner",
					"type": "address"
				}
			],
			"name": "ERC721InvalidOwner",
			"type": "error"
		},
		{
			"inputs": [
				{
					"internalType": "address",
					"name": "receiver",
					"type": "address"
				}
			],
			"name": "ERC721InvalidReceiver",
			"type": "error"
		},
		{
			"inputs": [
				{
					"internalType": "address",
					"name": "sender",
					"type": "address"
				}
			],
			"name": "ERC721InvalidSender",
			"type": "error"
		},
		{
			"inputs": [
				{
					"internalType": "uint256",
					"name": "tokenId",
					"type": "uint256"
				}
			],
			"name": "ERC721NonexistentToken",
			"type": "error"
		},
		{
			"inputs": [
				{
					"internalType": "address",
					"name": "owner",
					"type": "address"
				}
			],
			"name": "OwnableInvalidOwner",
			"type": "error"
		},
		{
			"inputs": [
				{
					"internalType": "address",
					"name": "account",
					"type": "address"
				}
			],
			"name": "OwnableUnauthorizedAccount",
			"type": "error"
		},
		{
			"anonymous": false,
			"inputs": [
				{
					"indexed": true,
					"internalType": "address",
					"name": "owner",
					"type": "address"
				},
				{
					"indexed": true,
					"internalType": "address",
					"name": "approved",
					"type": "address"
				},
				{
					"indexed": true,
					"internalType": "uint256",
					"name": "tokenId",
					"type": "uint256"
				}
			],
			"name": "Approval",
			"type": "event"
		},
		{
			"anonymous": false,
			"inputs": [
				{
					"indexed": true,
					"internalType": "address",
					"name": "owner",
					"type": "address"
				},
				{
					"indexed": true,
					"internalType": "address",
					"name": "operator",
					"type": "address"
				},
				{
					"indexed": false,
					"internalType": "bool",
					"name": "approved",
					"type": "bool"
				}
			],
			"name": "ApprovalForAll",
			"type": "event"
		},
		{
			"anonymous": false,
			"inputs": [
				{
					"indexed": true,
					"internalType": "address",
					"name": "player",
					"type": "address"
				},
				{
					"indexed": false,
					"internalType": "uint256",
					"name": "streakDay",
					"type": "uint256"
				},
				{
					"indexed": false,
					"internalType": "uint256",
					"name": "reward",
					"type": "uint256"
				},
				{
					"indexed": false,
					"internalType": "uint256",
					"name": "energy",
					"type": "uint256"
				}
			],
			"name": "CheckedIn",
			"type": "event"
		},
		{
			"anonymous": false,
			"inputs": [
				{
					"indexed": true,
					"internalType": "address",
					"name": "player",
					"type": "address"
				},
				{
					"indexed": false,
					"internalType": "uint256",
					"name": "points",
					"type": "uint256"
				}
			],
			"name": "EcosystemBonusSet",
			"type": "event"
		},
		{
			"anonymous": false,
			"inputs": [
				{
					"indexed": true,
					"internalType": "address",
					"name": "to",
					"type": "address"
				},
				{
					"indexed": true,
					"internalType": "uint256",
					"name": "tokenId",
					"type": "uint256"
				},
				{
					"indexed": false,
					"internalType": "uint8",
					"name": "classId",
					"type": "uint8"
				}
			],
			"name": "HeroMinted",
			"type": "event"
		},
		{
			"anonymous": false,
			"inputs": [
				{
					"indexed": true,
					"internalType": "address",
					"name": "previousOwner",
					"type": "address"
				},
				{
					"indexed": true,
					"internalType": "address",
					"name": "newOwner",
					"type": "address"
				}
			],
			"name": "OwnershipTransferred",
			"type": "event"
		},
		{
			"anonymous": false,
			"inputs": [
				{
					"indexed": true,
					"internalType": "address",
					"name": "player",
					"type": "address"
				},
				{
					"indexed": false,
					"internalType": "uint8",
					"name": "outcome",
					"type": "uint8"
				},
				{
					"indexed": false,
					"internalType": "uint256",
					"name": "reward",
					"type": "uint256"
				},
				{
					"indexed": false,
					"internalType": "uint256",
					"name": "energy",
					"type": "uint256"
				}
			],
			"name": "Spun",
			"type": "event"
		},
		{
			"anonymous": false,
			"inputs": [
				{
					"indexed": true,
					"internalType": "address",
					"name": "player",
					"type": "address"
				},
				{
					"indexed": true,
					"internalType": "uint256",
					"name": "tokenId",
					"type": "uint256"
				},
				{
					"indexed": false,
					"internalType": "uint8",
					"name": "statType",
					"type": "uint8"
				},
				{
					"indexed": false,
					"internalType": "uint8",
					"name": "newValue",
					"type": "uint8"
				},
				{
					"indexed": false,
					"internalType": "uint256",
					"name": "energy",
					"type": "uint256"
				}
			],
			"name": "StatUpgraded",
			"type": "event"
		},
		{
			"anonymous": false,
			"inputs": [
				{
					"indexed": true,
					"internalType": "address",
					"name": "from",
					"type": "address"
				},
				{
					"indexed": true,
					"internalType": "address",
					"name": "to",
					"type": "address"
				},
				{
					"indexed": true,
					"internalType": "uint256",
					"name": "tokenId",
					"type": "uint256"
				}
			],
			"name": "Transfer",
			"type": "event"
		},
		{
			"anonymous": false,
			"inputs": [
				{
					"indexed": true,
					"internalType": "address",
					"name": "player",
					"type": "address"
				},
				{
					"indexed": false,
					"internalType": "uint256",
					"name": "weekId",
					"type": "uint256"
				},
				{
					"indexed": false,
					"internalType": "uint256",
					"name": "score",
					"type": "uint256"
				}
			],
			"name": "WeeklyScoreUpdated",
			"type": "event"
		},
		{
			"anonymous": false,
			"inputs": [
				{
					"indexed": true,
					"internalType": "address",
					"name": "to",
					"type": "address"
				},
				{
					"indexed": false,
					"internalType": "uint256",
					"name": "amount",
					"type": "uint256"
				}
			],
			"name": "Withdrawn",
			"type": "event"
		},
		{
			"inputs": [],
			"name": "DAILY_ENERGY",
			"outputs": [
				{
					"internalType": "uint256",
					"name": "",
					"type": "uint256"
				}
			],
			"stateMutability": "view",
			"type": "function"
		},
		{
			"inputs": [],
			"name": "MAX_CLASSES",
			"outputs": [
				{
					"internalType": "uint256",
					"name": "",
					"type": "uint256"
				}
			],
			"stateMutability": "view",
			"type": "function"
		},
		{
			"inputs": [],
			"name": "MAX_PER_TX",
			"outputs": [
				{
					"internalType": "uint256",
					"name": "",
					"type": "uint256"
				}
			],
			"stateMutability": "view",
			"type": "function"
		},
		{
			"inputs": [],
			"name": "MINT_PRICE",
			"outputs": [
				{
					"internalType": "uint256",
					"name": "",
					"type": "uint256"
				}
			],
			"stateMutability": "view",
			"type": "function"
		},
		{
			"inputs": [],
			"name": "SPIN_COST",
			"outputs": [
				{
					"internalType": "uint256",
					"name": "",
					"type": "uint256"
				}
			],
			"stateMutability": "view",
			"type": "function"
		},
		{
			"inputs": [],
			"name": "STAT_INITIAL",
			"outputs": [
				{
					"internalType": "uint8",
					"name": "",
					"type": "uint8"
				}
			],
			"stateMutability": "view",
			"type": "function"
		},
		{
			"inputs": [],
			"name": "STAT_MAX",
			"outputs": [
				{
					"internalType": "uint8",
					"name": "",
					"type": "uint8"
				}
			],
			"stateMutability": "view",
			"type": "function"
		},
		{
			"inputs": [],
			"name": "STREAK7_ENERGY",
			"outputs": [
				{
					"internalType": "uint256",
					"name": "",
					"type": "uint256"
				}
			],
			"stateMutability": "view",
			"type": "function"
		},
		{
			"inputs": [],
			"name": "WEEK_SECONDS",
			"outputs": [
				{
					"internalType": "uint256",
					"name": "",
					"type": "uint256"
				}
			],
			"stateMutability": "view",
			"type": "function"
		},
		{
			"inputs": [
				{
					"internalType": "address",
					"name": "to",
					"type": "address"
				},
				{
					"internalType": "uint256",
					"name": "tokenId",
					"type": "uint256"
				}
			],
			"name": "approve",
			"outputs": [],
			"stateMutability": "nonpayable",
			"type": "function"
		},
		{
			"inputs": [
				{
					"internalType": "address",
					"name": "owner",
					"type": "address"
				}
			],
			"name": "balanceOf",
			"outputs": [
				{
					"internalType": "uint256",
					"name": "",
					"type": "uint256"
				}
			],
			"stateMutability": "view",
			"type": "function"
		},
		{
			"inputs": [
				{
					"internalType": "address[]",
					"name": "addrs",
					"type": "address[]"
				},
				{
					"internalType": "uint256[]",
					"name": "points",
					"type": "uint256[]"
				}
			],
			"name": "batchSetEcosystemBonus",
			"outputs": [],
			"stateMutability": "nonpayable",
			"type": "function"
		},
		{
			"inputs": [
				{
					"internalType": "address",
					"name": "user",
					"type": "address"
				}
			],
			"name": "canCheckIn",
			"outputs": [
				{
					"internalType": "bool",
					"name": "",
					"type": "bool"
				}
			],
			"stateMutability": "view",
			"type": "function"
		},
		{
			"inputs": [],
			"name": "checkIn",
			"outputs": [],
			"stateMutability": "nonpayable",
			"type": "function"
		},
		{
			"inputs": [
				{
					"internalType": "address",
					"name": "user",
					"type": "address"
				}
			],
			"name": "computeScore",
			"outputs": [
				{
					"internalType": "uint256",
					"name": "",
					"type": "uint256"
				}
			],
			"stateMutability": "view",
			"type": "function"
		},
		{
			"inputs": [],
			"name": "currentWeekId",
			"outputs": [
				{
					"internalType": "uint256",
					"name": "",
					"type": "uint256"
				}
			],
			"stateMutability": "view",
			"type": "function"
		},
		{
			"inputs": [
				{
					"internalType": "address",
					"name": "",
					"type": "address"
				}
			],
			"name": "ecosystemBonus",
			"outputs": [
				{
					"internalType": "uint256",
					"name": "",
					"type": "uint256"
				}
			],
			"stateMutability": "view",
			"type": "function"
		},
		{
			"inputs": [
				{
					"internalType": "uint256",
					"name": "tokenId",
					"type": "uint256"
				}
			],
			"name": "getApproved",
			"outputs": [
				{
					"internalType": "address",
					"name": "",
					"type": "address"
				}
			],
			"stateMutability": "view",
			"type": "function"
		},
		{
			"inputs": [
				{
					"internalType": "uint256",
					"name": "tokenId",
					"type": "uint256"
				}
			],
			"name": "getHero",
			"outputs": [
				{
					"components": [
						{
							"internalType": "uint8",
							"name": "classId",
							"type": "uint8"
						},
						{
							"internalType": "uint8",
							"name": "power",
							"type": "uint8"
						},
						{
							"internalType": "uint8",
							"name": "strength",
							"type": "uint8"
						},
						{
							"internalType": "uint8",
							"name": "speed",
							"type": "uint8"
						}
					],
					"internalType": "struct DestinyWarHub.HeroStats",
					"name": "",
					"type": "tuple"
				}
			],
			"stateMutability": "view",
			"type": "function"
		},
		{
			"inputs": [
				{
					"internalType": "address",
					"name": "user",
					"type": "address"
				}
			],
			"name": "getPlayer",
			"outputs": [
				{
					"components": [
						{
							"internalType": "uint256",
							"name": "energy",
							"type": "uint256"
						},
						{
							"internalType": "uint256",
							"name": "lastCheckInDay",
							"type": "uint256"
						},
						{
							"internalType": "uint256",
							"name": "streakDay",
							"type": "uint256"
						},
						{
							"internalType": "uint256",
							"name": "totalCheckIns",
							"type": "uint256"
						},
						{
							"internalType": "uint256",
							"name": "totalSpins",
							"type": "uint256"
						},
						{
							"internalType": "uint256",
							"name": "totalUpgrades",
							"type": "uint256"
						}
					],
					"internalType": "struct DestinyWarHub.Player",
					"name": "",
					"type": "tuple"
				}
			],
			"stateMutability": "view",
			"type": "function"
		},
		{
			"inputs": [
				{
					"internalType": "address",
					"name": "user",
					"type": "address"
				}
			],
			"name": "getWeeklyScore",
			"outputs": [
				{
					"internalType": "uint256",
					"name": "weekId",
					"type": "uint256"
				},
				{
					"internalType": "uint256",
					"name": "score",
					"type": "uint256"
				}
			],
			"stateMutability": "view",
			"type": "function"
		},
		{
			"inputs": [
				{
					"internalType": "uint256",
					"name": "tokenId",
					"type": "uint256"
				}
			],
			"name": "heroClass",
			"outputs": [
				{
					"internalType": "uint8",
					"name": "",
					"type": "uint8"
				}
			],
			"stateMutability": "view",
			"type": "function"
		},
		{
			"inputs": [
				{
					"internalType": "uint256",
					"name": "",
					"type": "uint256"
				}
			],
			"name": "heroStats",
			"outputs": [
				{
					"internalType": "uint8",
					"name": "classId",
					"type": "uint8"
				},
				{
					"internalType": "uint8",
					"name": "power",
					"type": "uint8"
				},
				{
					"internalType": "uint8",
					"name": "strength",
					"type": "uint8"
				},
				{
					"internalType": "uint8",
					"name": "speed",
					"type": "uint8"
				}
			],
			"stateMutability": "view",
			"type": "function"
		},
		{
			"inputs": [
				{
					"internalType": "address",
					"name": "owner",
					"type": "address"
				},
				{
					"internalType": "address",
					"name": "operator",
					"type": "address"
				}
			],
			"name": "isApprovedForAll",
			"outputs": [
				{
					"internalType": "bool",
					"name": "",
					"type": "bool"
				}
			],
			"stateMutability": "view",
			"type": "function"
		},
		{
			"inputs": [
				{
					"internalType": "uint8",
					"name": "classId",
					"type": "uint8"
				},
				{
					"internalType": "uint256",
					"name": "quantity",
					"type": "uint256"
				}
			],
			"name": "mintHero",
			"outputs": [],
			"stateMutability": "nonpayable",
			"type": "function"
		},
		{
			"inputs": [],
			"name": "name",
			"outputs": [
				{
					"internalType": "string",
					"name": "",
					"type": "string"
				}
			],
			"stateMutability": "view",
			"type": "function"
		},
		{
			"inputs": [
				{
					"internalType": "address",
					"name": "user",
					"type": "address"
				}
			],
			"name": "nextCheckInReward",
			"outputs": [
				{
					"internalType": "uint256",
					"name": "",
					"type": "uint256"
				}
			],
			"stateMutability": "view",
			"type": "function"
		},
		{
			"inputs": [],
			"name": "owner",
			"outputs": [
				{
					"internalType": "address",
					"name": "",
					"type": "address"
				}
			],
			"stateMutability": "view",
			"type": "function"
		},
		{
			"inputs": [
				{
					"internalType": "uint256",
					"name": "tokenId",
					"type": "uint256"
				}
			],
			"name": "ownerOf",
			"outputs": [
				{
					"internalType": "address",
					"name": "",
					"type": "address"
				}
			],
			"stateMutability": "view",
			"type": "function"
		},
		{
			"inputs": [
				{
					"internalType": "address",
					"name": "",
					"type": "address"
				}
			],
			"name": "players",
			"outputs": [
				{
					"internalType": "uint256",
					"name": "energy",
					"type": "uint256"
				},
				{
					"internalType": "uint256",
					"name": "lastCheckInDay",
					"type": "uint256"
				},
				{
					"internalType": "uint256",
					"name": "streakDay",
					"type": "uint256"
				},
				{
					"internalType": "uint256",
					"name": "totalCheckIns",
					"type": "uint256"
				},
				{
					"internalType": "uint256",
					"name": "totalSpins",
					"type": "uint256"
				},
				{
					"internalType": "uint256",
					"name": "totalUpgrades",
					"type": "uint256"
				}
			],
			"stateMutability": "view",
			"type": "function"
		},
		{
			"inputs": [],
			"name": "renounceOwnership",
			"outputs": [],
			"stateMutability": "nonpayable",
			"type": "function"
		},
		{
			"inputs": [
				{
					"internalType": "address",
					"name": "from",
					"type": "address"
				},
				{
					"internalType": "address",
					"name": "to",
					"type": "address"
				},
				{
					"internalType": "uint256",
					"name": "tokenId",
					"type": "uint256"
				}
			],
			"name": "safeTransferFrom",
			"outputs": [],
			"stateMutability": "nonpayable",
			"type": "function"
		},
		{
			"inputs": [
				{
					"internalType": "address",
					"name": "from",
					"type": "address"
				},
				{
					"internalType": "address",
					"name": "to",
					"type": "address"
				},
				{
					"internalType": "uint256",
					"name": "tokenId",
					"type": "uint256"
				},
				{
					"internalType": "bytes",
					"name": "data",
					"type": "bytes"
				}
			],
			"name": "safeTransferFrom",
			"outputs": [],
			"stateMutability": "nonpayable",
			"type": "function"
		},
		{
			"inputs": [
				{
					"internalType": "address",
					"name": "operator",
					"type": "address"
				},
				{
					"internalType": "bool",
					"name": "approved",
					"type": "bool"
				}
			],
			"name": "setApprovalForAll",
			"outputs": [],
			"stateMutability": "nonpayable",
			"type": "function"
		},
		{
			"inputs": [
				{
					"internalType": "address",
					"name": "player",
					"type": "address"
				},
				{
					"internalType": "uint256",
					"name": "points",
					"type": "uint256"
				}
			],
			"name": "setEcosystemBonus",
			"outputs": [],
			"stateMutability": "nonpayable",
			"type": "function"
		},
		{
			"inputs": [],
			"name": "spin",
			"outputs": [],
			"stateMutability": "nonpayable",
			"type": "function"
		},
		{
			"inputs": [
				{
					"internalType": "bytes4",
					"name": "interfaceId",
					"type": "bytes4"
				}
			],
			"name": "supportsInterface",
			"outputs": [
				{
					"internalType": "bool",
					"name": "",
					"type": "bool"
				}
			],
			"stateMutability": "view",
			"type": "function"
		},
		{
			"inputs": [],
			"name": "symbol",
			"outputs": [
				{
					"internalType": "string",
					"name": "",
					"type": "string"
				}
			],
			"stateMutability": "view",
			"type": "function"
		},
		{
			"inputs": [
				{
					"internalType": "uint256",
					"name": "tokenId",
					"type": "uint256"
				}
			],
			"name": "tokenURI",
			"outputs": [
				{
					"internalType": "string",
					"name": "",
					"type": "string"
				}
			],
			"stateMutability": "view",
			"type": "function"
		},
		{
			"inputs": [
				{
					"internalType": "address",
					"name": "owner",
					"type": "address"
				}
			],
			"name": "tokensOfOwner",
			"outputs": [
				{
					"internalType": "uint256[]",
					"name": "",
					"type": "uint256[]"
				}
			],
			"stateMutability": "view",
			"type": "function"
		},
		{
			"inputs": [],
			"name": "totalMinted",
			"outputs": [
				{
					"internalType": "uint256",
					"name": "",
					"type": "uint256"
				}
			],
			"stateMutability": "view",
			"type": "function"
		},
		{
			"inputs": [
				{
					"internalType": "address",
					"name": "from",
					"type": "address"
				},
				{
					"internalType": "address",
					"name": "to",
					"type": "address"
				},
				{
					"internalType": "uint256",
					"name": "tokenId",
					"type": "uint256"
				}
			],
			"name": "transferFrom",
			"outputs": [],
			"stateMutability": "nonpayable",
			"type": "function"
		},
		{
			"inputs": [
				{
					"internalType": "address",
					"name": "newOwner",
					"type": "address"
				}
			],
			"name": "transferOwnership",
			"outputs": [],
			"stateMutability": "nonpayable",
			"type": "function"
		},
		{
			"inputs": [
				{
					"internalType": "uint256",
					"name": "tokenId",
					"type": "uint256"
				},
				{
					"internalType": "uint8",
					"name": "statType",
					"type": "uint8"
				}
			],
			"name": "upgradeStat",
			"outputs": [],
			"stateMutability": "nonpayable",
			"type": "function"
		},
		{
			"inputs": [],
			"name": "usdc",
			"outputs": [
				{
					"internalType": "contract IERC20",
					"name": "",
					"type": "address"
				}
			],
			"stateMutability": "view",
			"type": "function"
		},
		{
			"inputs": [
				{
					"internalType": "uint256",
					"name": "",
					"type": "uint256"
				},
				{
					"internalType": "address",
					"name": "",
					"type": "address"
				}
			],
			"name": "weeklyScores",
			"outputs": [
				{
					"internalType": "uint256",
					"name": "",
					"type": "uint256"
				}
			],
			"stateMutability": "view",
			"type": "function"
		},
		{
			"inputs": [],
			"name": "withdraw",
			"outputs": [],
			"stateMutability": "nonpayable",
			"type": "function"
		}
	]
}